:100000000C94E90E0C94812C0C94AC2C0C94D72CF1
:100010000C94022D0C942D2D0C94582D0C94832DA2
:100020000C94AE2D0C941A0F0C941A0F0C941A0FFA
:100030000C941A0F0C9474280C941A0F0C941A0F29
:100040000C941A0F0C941A0F0C941A0F0C941A0F8C
:100050000C941A0F0C941A0F0C941A0F0C94E1289C
:100060000C941A0F0C941A0F0C941A0F0C941A0F6C
:100070000C941A0F0C941A0F0C941A0F0C941A0F5C
:100080000C941A0F0C941A0F0C941A0F0C941A0F4C
:100090000C941A0F0C941A0F0C941A0F0C941A0F3C
:1000A0000C941A0F0C941A0F0C941A0F0C941A0F2C
:1000B0000C941A0F0C941A0F0C941A0F0C941A0F1C
:1000C0000C941A0F0C941A0F0C941A0F0C941A0F0C
:1000D0000C941A0F0C941A0F0C941A0F0C941A0FFC
:1000E0000C941A0F2D1338134D135A1368137813E9
:1000F00088139613B213202520252025202520259E
:1001000020252025202520252025202520252025C7
:10011000202520252025BD1320252025CD13DF13E4
:10012000F61308142025202520252025202520250C
:100130002025202520252025202520252025202597
:1001400020252025261442145E147A149614B11426
:10015000CC14E7142025202520252025021515156F
:1001600034155315721520252025202520252025FE
:100170002025202520252025202520252025202557
:1001800020252025811520252025202520252025F6
:1001900020252025931520252025202520252025D4
:1001A00020252025A51520252025202520252025B2
:1001B00020252025B7152025202520252025202590
:1001C00020252025C7152025202520252025202570
:1001D00020252025D7152025202520252025202550
:1001E00020252025202520252025202520252025E7
:1001F00020252025202520252025202520252025D7
:100200002025E8152816461664168216A016C21672
:10021000E416061728174A176C178E17B017D2174F
:10022000F4171618202520252025202520252025F7
:100230002025202538185F188618AD182025202580
:100240002025202520252025202520252025202586
:1002500020252025D418FB182219491920252025EE
:100260002025202570199719BE19E5190C1A1B1A9B
:100270005C1A9E1AE01A081B301B581B2025801B95
:10028000C21B041C461C711C9C1CC71CF21C041DB8
:10029000481D8C1DD01DFA1D241E4E1E781E891E61
:1002A000CD1E111F551F7F1FA91FD31FFD1F0E201D
:1002B00052209620DA20FF20242149216E217E2120
:1002C000BD21FC213B2260228522AA22CF22DF22EF
:1002D0001E235D239C23C623F0231A244424552483
:1002E0009924DD24042A072AF629FA29002A3E2A1D
:1002F0000B2A0F2A152A192A1D2A232A272A2B2AD4
:100300003E2A312A352A392A5B2C252C2D2C392CD2
:10031000462C672C742C3800440054005C005800B4
:1003200040003C0000001800240042007E00420013
:100330004200420000007C00220022003C0022001B
:1003400022007C0000001C00220040004000400011
:1003500022001C000000780024002200220022005D
:100360002400780000007E0040004000780040003B
:1003700040007E0000007E00400040007800400009
:100380004000400000001C00220040004E004200DF
:1003900022001C0000004200420042007E00420099
:1003A0004200420000001C0008000800080008008D
:1003B00008001C0000000E000400040004000400FB
:1003C000440038000000420044004800700048002B
:1003D0004400420000004000400040004000400057
:1003E00040007E000000420066005A005A004200B1
:1003F0004200420000004200620052004A004600F3
:100400004200420000001800240042004200420066
:100410002400180000007C00420042007C004000E4
:1004200040004000000018002400420042004A0042
:1004300024001A0000007C00420042007C004800BA
:100440004400420000003C00420040003C0002002A
:1004500042003C0000003E000800080008000800C0
:100460000800080000004200420042004200420032
:1004700042003C00000042004200420024002400F0
:100480001800180000004200420042005A005A00C2
:1004900066004200000042004200240018002400D0
:1004A0004200420000002200220022001C0008003E
:1004B0000800080000007C00040008001000200074
:1004C00040007C0000007C00600060006000600074
:1004D00060007C00000000004000200010000800C8
:1004E0000400000000007C000C000C000C000C005C
:1004F0000C007C00000000000000100028004400F8
:1005000000000000000000000000000000000000EB
:1005100000007C000000000000000000000000005F
:10052000000000000000100010001000100010007B
:100530000000100000002800280028000000000033
:10054000000000000000280028007C0028007C003B
:1005500028002800000010003C0050003800140063
:100560007800100000006000640008001000200007
:100570004C000C00000020005000500020005400EF
:1005800048003400000010001000100000000000BF
:10059000000000000000100020004000400040006B
:1005A00020001000000010000800040004000400F7
:1005B000080010000000100054003800100038003F
:1005C0005400100000000000100010007C0010001B
:1005D00010000000000000000000000000001000FB
:1005E0001000200000000000000000007C0000005F
:1005F00000000000000000000000000000000000FB
:10060000000010000000000004000800100020009E
:100610004000000000003C00420046005A0062001A
:1006200042003C00000008001800280008000800F4
:1006300008003E0000003C00420002000C003000B8
:1006400040007E0000003C00420002003C0002002E
:1006500042003C00000004000C00140024007E0056
:100660000400040000007E00400078000400020046
:100670004400380000001C00200040007C004200C4
:1006800042003C0000007E00420004000800100010
:100690001000100000003C00420042003C004200FC
:1006A00042003C0000003C00420042003E000200CC
:1006B00004003800000000000000100000001000DE
:1006C000000000000000000000001000000010000A
:1006D0001000200000000800100020004000200052
:1006E000100008000000000000007C0000007C00FA
:1006F00000000000000020001000080004000800B6
:100700001000200000003800440008001000100015
:1007100000001000000000000000000000000000C9
:10072000000000000000F000F000F00000000000F9
:100730000000000000000F000F000F00000000008C
:10074000000000000000FF00FF00FF0000000000AC
:10075000000000000000000000000000F000F000B9
:10076000000000000000F000F000F000F000F000D9
:100770000000000000000F000F000F00F000F0006C
:10078000000000000000FF00FF00FF00F000F0008C
:100790000000000000000000000000000F000F003B
:1007A000000000000000F000F000F0000F000F005B
:1007B0000000000000000F000F000F000F000F00EE
:1007C000000000000000FF00FF00FF000F000F000E
:1007D000000000000000000000000000FF00FF001B
:1007E000000000000000F000F000F000FF00FF003B
:1007F0000000000000000F000F000F00FF00FF00CE
:10080000000000000000FF00FF00FF00FF00FF00ED
:1008100000000000000000000000000000000000D8
:10082000F000F000F000F000F000F0000000000028
:10083000F000F000F0000F000F000F0000000000BB
:10084000F000F000F000FF00FF00FF0000000000DB
:10085000F000F000F000000000000000F000F000E8
:10086000F000F000F000F000F000F000F000F00008
:10087000F000F000F0000F000F000F00F000F0009B
:10088000F000F000F000FF00FF00FF00F000F000BB
:10089000F000F000F0000000000000000F000F006A
:1008A000F000F000F000F000F000F0000F000F008A
:1008B000F000F000F0000F000F000F000F000F001D
:1008C000F000F000F000FF00FF00FF000F000F003D
:1008D000F000F000F000000000000000FF00FF004A
:1008E000F000F000F000F000F000F000FF00FF006A
:1008F000F000F000F0000F000F000F00FF00FF00FD
:10090000F000F000F000FF00FF00FF00FF00FF001C
:10091000F000F000F0000000000000000000000007
:100920000F000F000F00F000F000F00000000000CA
:100930000F000F000F000F000F000F00000000005D
:100940000F000F000F00FF00FF00FF00000000007D
:100950000F000F000F00000000000000F000F0008A
:100960000F000F000F00F000F000F000F000F000AA
:100970000F000F000F000F000F000F00F000F0003D
:100980000F000F000F00FF00FF00FF00F000F0005D
:100990000F000F000F000000000000000F000F000C
:1009A0000F000F000F00F000F000F0000F000F002C
:1009B0000F000F000F000F000F000F000F000F00BF
:1009C0000F000F000F00FF00FF00FF000F000F00DF
:1009D0000F000F000F00000000000000FF00FF00EC
:1009E0000F000F000F00F000F000F000FF00FF000C
:1009F0000F000F000F000F000F000F00FF00FF009F
:100A00000F000F000F00FF00FF00FF00FF00FF00BE
:100A10000F000F000F0000000000000000000000A9
:100A2000FF00FF00FF00F000F000F00000000000F9
:100A3000FF00FF00FF000F000F000F00000000008C
:100A4000FF00FF00FF00FF00FF00FF0000000000AC
:100A5000FF00FF00FF00000000000000F000F000B9
:100A6000FF00FF00FF00F000F000F000F000F000D9
:100A7000FF00FF00FF000F000F000F00F000F0006C
:100A8000FF00FF00FF00FF00FF00FF00F000F0008C
:100A9000FF00FF00FF000000000000000F000F003B
:100AA000FF00FF00FF00F000F000F0000F000F005B
:100AB000FF00FF00FF000F000F000F000F000F00EE
:100AC000FF00FF00FF00FF00FF00FF000F000F000E
:100AD000FF00FF00FF00000000000000FF00FF001B
:100AE000FF00FF00FF00F000F000F000FF00FF003B
:100AF000FF00FF00FF000F000F000F00FF00FF00CE
:100B0000FF00FF00FF00FF00FF00FF00FF00FF00ED
:100B1000FF00FF00FF0000000000000000000000D8
:100B200000000000FF0000000000000000000000C6
:100B30000000FF00000000000000000000000000B6
:100B4000FF00000000000000000000000000FF00A7
:100B5000000000000000000000000000FF00000096
:100B600000000000000000000000FF000000000086
:100B70000000000000000000FF0000000000000076
:100B8000000000000000FF00000000000000000066
:100B900000000000000080008000800080008000D5
:100BA0008000800080004000400040004000400085
:100BB00040004000400020002000200020002000D5
:100BC0002000200020001000100010001000100075
:100BD00010001000100008000800080008000800BD
:100BE00008000800080004000400040004000400D9
:100BF00004000400040002000200020002000200DF
:100C000002000200020001000100010001000100D9
:100C1000010001000100FF00FE00FC00F800F000F0
:100C2000E000C00080000100030007000F001F006B
:100C30003F007F00FF00FF007F003F001F000F000C
:100C40000700030001008000C000E000F000F80091
:100C5000FC00FE00FF008100420024001800180084
:100C6000240042008100010002000400080010007E
:100C7000200040008000800040002000100008009C
:100C8000040002000100AA005500AA00550000005F
:100C90000000000000000000000000000000AA00AA
:100CA0005500AA005500A0005000A0005000A00070
:100CB0005000A00050000A0005000A0005000A00CC
:100CC00005000A000500AA005500AA005500AA0068
:100CD0005500AA005500FF000100010001000100BD
:100CE00001000100010001000100010001000100FC
:100CF00001000100FF008000800080008000800073
:100D000080008000FF00FF008000800080008000E5
:100D10008000800080006600FF00FF00FF007E0072
:100D20003C00180018003C003C0018004200E7009E
:100D3000E70018003C0018003C007E00FF00FF00A8
:100D40005A0018003C0018003C007E00FF00FF0025
:100D50007E003C001800180018003C007E00FF00D8
:100D6000DB0018003C00300038009C00FF00FF0052
:100D70009C00380030003C001800DB00FF007E00C3
:100D80003C00180018000C001C003900FF00FF0098
:100D900039001C000C000000080008002A003E007A
:100DA0003E003E002200000001000A001C003E0040
:100DB0007C00180010000000F80070007E00700039
:100DC000F80000000000100018007C003E001C002D
:100DD0000A000100000022003E003E003E002A0002
:100DE00008000800000004000C001F003E001C006A
:100DF00028004000000000001F000E007E000E00D2
:100E00001F000000000000008000500038007C003F
:100E10003E001800080018003C005A001800180096
:100E2000180018003C000F0007000F001D00B8005C
:100E3000700020001000000004008200FF00FF008E
:100E4000820004000000100020007000B8001D00A7
:100E50000F0007000F003C001800180018001800D1
:100E60005A003C001800080004000E001D00B800E5
:100E7000F000E000F000000020004100FF00FF0053
:100E8000410020000000F000E000F000B8001D006C
:100E90000E000400080008000800080009000F0008
:100EA0000F001F001F0000004000200013000F0073
:100EB0000F001F001F000000000000000300FF00E3
:100EC0000F001F001F001000100010009000F00025
:100ED000F000F800F800000002000400C800F00074
:100EE000F000F800F800000000000000C000FF0063
:100EF000F000F800F8000000000000002400990055
:100F00005A00FF00000018003C007E007F007E00B9
:100F10003C00080008000000000018003C007E00B3
:100F20007E0056005E0018003D007F00FF00AD000F
:100F3000FF00AD00BF00E000470042007E0042001D
:100F40004700E000000022003E002A0008000800E0
:100F500049007F0041001C001C0008003E00080002
:100F600008001400220000001100D200FC00D20092
:100F7000110000000000000088004B003F004B0003
:100F800088000000000022001400080008003E0055
:100F900008001C001C003C007E00FF00DB00FF007E
:100FA00067007E003C003C0042008100A5008100FB
:100FB000990042003C00180024007E00FF005A0007
:100FC00024000000000000003C007E007E007E0047
:100FD0007E003C00000000003C0042004200420055
:100FE00042003C0000003C00420081008100810082
:100FF000810042003C0001000000000003000300EB
:101000003F007F003F00800080008000C000E300C0
:10101000FF00FF00FE000100010001000300C70007
:10102000FF00FF007F00800000000000C000C00043
:10103000FC00FE00FC00000000007F000400040033
:101040001F00070000000000000018007F00E00003
:10105000F800F8000000000000001800FE00070083
:101060001F001F00000000000000FE002000200004
:10107000F800E0000000000000000100430037001D
:10108000FF00FF00FF0040004000E000E200EC0035
:10109000FF00FE00FC0002000200070047003700CE
:1010A000FF007F003F00000000008000C200EC0055
:1010B000FF00FF00FF000000000000000000FF0034
:1010C000FF00FF00FF00FF00FF00FF00FF00000027
:1010D00000000000000000000000000000000F0001
:1010E0000F000F000F000F000F000F000F00000097
:1010F0000000000000000000000000000000F00000
:10110000F000F000F000F000F000F000F00000004F
:101110000000000000003C00660042004200660043
:101120007E0066003C003C00660042004200660013
:101130007E0066003C003C00660042004200660003
:101140007E0066003C003C006600420042006600F3
:101150007E0066003C003C006600420042006600E3
:101160007E0066003C003C006600420042006600D3
:101170007E0066003C003C006600420042006600C3
:101180007E0066003C003C006600420042006600B3
:101190007E0066003C003C006600420042006600A3
:1011A0007E0066003C003C00660042004200660093
:1011B0007E0066003C003C00660042004200660083
:1011C0007E0066003C003C00660042004200660073
:1011D0007E0066003C003C00660042004200660063
:1011E0007E0066003C003C00660042004200660053
:1011F0007E0066003C003C00660042004200660043
:101200007E0066003C003C00660042004200660032
:101210007E0066003C0000000000000000000000AE
:10122000000000000000080008000800080000009E
:1012300000000000000000000000000000000800A6
:10124000080008000800080008000800080008005E
:10125000080008000800000000000000F80000007E
:10126000000000000000080008000800F80000006E
:10127000000000000000000000000000F80008006E
:10128000080008000800080008000800F80008002E
:101290000800080008000000000000000F00000027
:1012A0000000000000000800080008000F00000017
:1012B0000000000000000000000000000F00080017
:1012C0000800080008000800080008000F000800D7
:1012D000080008000800000000000000FF000000F7
:1012E000000000000000080008000800FF000000E7
:1012F000000000000000000000000000FF000800E7
:10130000080008000800080008000800FF000800A6
:1013100008000800080008C40F36C4FF32C640C4E5
:10132000A5CEC0E2009CF8C40C35C40131C415CD73
:1013300001C40CCD00C40035C40031C420CD01313E
:1013400094F8C40C35C40031C400C900C40237C4C9
:10135000E933C4003FC40237C47C33C45D3FC400DA
:1013600001C40835C100940290FAC10094FCD47FF6
:10137000CAFFC40C35C40531C2FFE408981EE40559
:10138000982840E41098DAC2FF02F4209402FC206E
:10139000F4E0C9803F0102F4010190C54098C20306
:1013A000FC0101C4083F90B990A2C980C40D3FC49C
:1013B000000140CAFFC9FFC10002F43F941AC405EE
:1013C000CAFE40027001C2FFF2FFCAFFBAFE9CF2E1
:1013D000C501D41F580190DFC40331C900C4513185
:1013E000C40735C100D9019831C503609CF5C1FE21
:1013F000E2FF9CEFC41C33C40337C1FFD4F0E420E8
:101400009C22C1FF02F1FFD41FF4F231C40735C1A1
:101410000001C101354031C5FF3DC403078FFFC442
:1014200000079084C1FFCEFF3F06940531CEFF90A8
:1014300008C200D4809CE3CEFFC40C37C40133C380
:101440000302F201CA01C30031C30135C201CD015B
:10145000941FC200CD01C3039C17C201E48F9811F1
:10146000C1FF02FB00C9FFC201D4F0E4909C02B9A5
:10147000FF31CB0035CB01C602900C3F3F9008C432
:1014800002078FFFC40007C43533C400373F3F064F
:1014900094ED31333537C7FF3F90EC3F0694E03190
:1014A000CAFF35CAFE023F3FC4000119C420CAFD6D
:1014B0008FFFBAFD9CFAC40001198F10C480011976
:1014C000C4008F04C50101C408CAFD19C4008F04FB
:1014D000BAFDBAFF9CE0BAFE94DCC4800119C400D6
:1014E0008F04C400011990B13F3F3FC40837C300C7
:1014F000D4809C8B1940D40198F48F06C408CAFF8D
:1015000019C4008F04BAFF9CF740CD011940D401E3
:1015100098DC90D23F3FC407CEFFC40237C4E93302
:10152000C4043FC40C35C40131C10002F404C90035
:10153000C101F400C901BA009CE0C60190A8C41C16
:1015400033C403373F06949EC40C35C4013101C136
:101550000033C1013740CB00A9009CE2A90190DE15
:10156000CEFFC40237CEFFC47C33CEFF069403C443
:10157000203FC2021C1C1C1C02EC90EC403FC2022B
:10158000D40F02EC90EC403FC60133C60137C601D0
:101590003F90CDCEFFC40C35CEFFC40031CEFFC48A
:1015A0000037CEFF33CEFFC10033C420CB00C204CE
:1015B000E40D9840E4059830C204D43FCF01A9005F
:1015C000D40F9C0CC410CAFFC420CF01BAFF9CF8F2
:1015D000C10033C49BCB00C60133C60137C60131FD
:1015E000C60135C6013F90AB3398E5B90033C4203E
:1015F000CB0090DCC100D47002F410C9003390C459
:10160000CEFFC40237CEFFC44933CEFFC40C35C46D
:101610000131C101023FC100023F01C1013540312A
:10162000BA029409C60133C602373F90D3C50103FD
:101630003F90EDC40C35C40331C400CAFFCAFEC1DB
:101640000031C100987BC501E42098F6E460985E03
:10165000E410984CC1FF02F4509466FC09940AFC13
:1016600007945EF479945AF47602F40AD40F01C414
:1016700004CAFD02C2FFF2FFCAFFC2FEF2FECAFEAA
:10168000BAFD9CEFC2FF58CAFFC50103FC2194C4F8
:10169000C5FFC40331C900C2FF31C2FE3503902229
:1016A000C100D4FCE4309C19C501D4039002C404E9
:1016B000CAFDC4043101C10002F2FDC900403190ED
:1016C00081023F06940CC4013101C40C35C90140AC
:1016D000C9003FC40C35C40131C10001C10135400E
:1016E000313FFFFFFFFFFFFFFFFFFFFFFFFFFFFF98
:1016F000FFFFFFFFFFFFFFFFFFFFFFFFFFFFFFFFFA
:10170000FFFFFFFFFFFFFFFFFFFFFFFFFFFFFFFFE9
:10171000FFFFFFFFFFFFFFFFFFFFFFFFFFFFFFFFD9
:10172000FFFFFFFFFFFFFFFFFFFFFFFFFFFFFFFFC9
:101A6000FFFFFFFFFFFFFF9421002560016C0C02C8
:101A70006C4C032E1104AE2405610E06330C07F0E6
:101A800039082F4D1972021C4C4E1D52021E4C4A31
:101A90001F040020010021070022B44223B41C24AB
:101AA0000300250200260C623008623403623C8584
:101AB0003040C50550453E58456260251068850494
:101AC00070250C7899118FB029905001945A019883
:101AD000DA299C8425A88411B88401C08930C47493
:101AE00002C8C405D0C905D4F201D8493EDCF26170
:101AF000E04962E42410E82910EC8404F08904F43D
:101B0000240CF8290CFC0000FE0165017801850118
:101B1000D2011F0028020200000A0B02090C0D0E60
:101B2000080703040100000000000000000000009E
:101B300000000000000000000000000000000000A5
:101B40000000001211100000000000000000000062
:101B50000000000000000000000000000001021072
:101B600020200808102040102040800201020108B7
:101B70000402010102040810204080804020100867
:101B800004020180040201804020100804020108C0
:101B90000402010102040810204080010204081020
:101BA000204080050505050705080808080202020F
:101BB000020A0A08080404040401010101010101E8
:101BC000010303030303030303040707070C0C0CBF
:101BD0000C0C0C0C0C020202020606060606060697
:101BE000060B0B0B0B0B0B0B0B000020002300262E
:101BF0000029002C002F0032000001000003010624
:101C000001090100002200250028002B002E0031D0
:101C100000340002010000050108010B0100002151
:101C200000240027002A002D0030003300010100AD
:101C300000040107010A010000000000000000008C
:101C40000000000009600000000000007131000089
:101C5000007A736177320000637864653433000082
:101C600020766674723500006E626867793600000F
:101C7000006D6A75373800002C6B696F30390000D1
:101C80002E2F6C3B702D00000027005B3D000000F4
:101C9000000D5D005C00000000000000007F0000FF
:101CA00031003437000000302E323536381B00004A
:101CB0002B332D2A39000000000000000000000036
:101CC000000000000000000000000000097E00008D
:101CD0000000000051210000005A5341574000000D
:101CE0004358444524230000205646545225000002
:101CF0004E424847595E0000004D4A55262A0000D2
:101D00003C4B494F292800003E3F4C3A505F0000B1
:101D10000022007B2B000000000D7D007C000000F5
:101D200000000000007F0000310034370000003068
:101D30002E323536381B00002B332D2A3900000097
:101D40000000000000000000000000000000000093
:101D50000000000000000000000000000000000083
:101D60000000000000000000000000000000000073
:101D70000000000000000000000000000000000063
:101D80000000000000000000000000000000000053
:101D90000000000000000000000000000000000043
:101DA0000000000000000000000000000000000033
:101DB0000000000000000000000000000000000023
:101DC0000000000000000000000000000000000013
:101DD0008A1111241FBECFEFD1E2DEBFCDBF00E0DC
:101DE0000CBF12E0A0E0B2E0E2E3FDE500E00BBFD3
:101DF00002C007900D92AE36B107D9F727E1AEE6E3
:101E0000B2E001C01D92AD38B207E1F71DE1C2EDAD
:101E1000DDE100E006C022970109FE010BBF0E9430
:101E2000272EC03DD10780E00807A9F70E94D428DB
:101E30000C94972E0C940000FC012283638344834E
:101E40000895CF93DF93FC01438150E0FA01ED55F3
:101E5000F44EE491F0E0EE0FFF1FED5FF34EA5911D
:101E6000B491FC01248130E0F901ED55F44E8491E8
:101E700090E0880F991F8D5F934EFC01C591D4911E
:101E8000FA01E35AF44E4491F901E35AF44E2491D5
:101E90003FB7F89488E0722F7095542F5095988131
:101EA00067FF02C0922B01C0972398839C91942BCB
:101EB0009C939C9195239C93660F815081F73FBF23
:101EC000DF91CF9108951F93CF93DF93EC01142FEF
:101ED0008A81882389F06EBD0DB407FEFDCF812F66
:101EE000807F8EBD0DB407FEFDCF1295107F1EBD05
:101EF0000DB407FEFDCF0EC0CE01A3DF612F607FC2
:101F0000CE019FDF612F6295607FCE01DF91CF917F
:101F10001F9197CFDF91CF911F910895462F68EFC2
:101F2000D2CFCF93DF93EC0160E08B810E94782ABF
:101F300060E08C810E94782A61E08B810E943F2AB8
:101F400061E08C810E943F2A8A81882311F081E51B
:101F50008CBD188260E2CE01E1DF61E070E080E0DC
:101F600090E00E945A2960E2CE01D8DF80E390E041
:101F70000E947F2966E0CE01D1DF80E390E00E94DD
:101F80007F29198281E088836CE0CE01C7DF80E37E
:101F900090E0DF91CF910C947F29462F6AEF93CF89
:101FA000CF93DF93EC01898181110EC08881882352
:101FB00011F066E201C064E2CE01B0DF80E390E0A0
:101FC0000E947F2981E08983DF91CF910895EF926C
:101FD000FF920F931F93CF93DF931F92CDB7DEB77E
:101FE0007C018B01FC018081882301F1C7014983B9
:101FF000D7DF602F6F716068C70190DF4981642F60
:102000006068C801807299279695879596958795FF
:10201000682BC70183DF80E390E00F90DF91CF91C1
:102020001F910F91FF90EF900C947F290F90DF91FB
:10203000CF911F910F91FF90EF9008950F931F93F1
:10204000CF93DF931F921F92CDB7DEB78C01842F01
:10205000462F50E0682F70E0C8012A833983B7DF2C
:102060003981632FC80199DF2A81622FC80195DF6A
:102070008AE090E00F900F90DF91CF911F910F9128
:102080000C947F29FF920F931F93CF93DF938C01C2
:10209000C0E0D0E040E050E0BE01C80198DFF8E0C9
:1020A000FF2E60E0C80179DF60E0C80176DF8AE0DA
:1020B00090E00E947F29FA94A1F72196C034D105BF
:1020C00049F7DF91CF911F910F91FF900895AF9243
:1020D000BF92CF92DF92EF92FF920F931F93CF9315
:1020E000DF936C01B62EA42E7901C0E0D0E0F70199
:1020F00080819E0148E0849F200D311D1124C9017B
:10210000880F991F8A5E9C4FAA2797FDA095BA2F2A
:10211000ABBFFC0187919691F70121818E01F8E018
:102120002F9F000D111D1124000F111F0A5E1C4F5F
:10213000222717FD2095322F2BBFF801079116910A
:10214000382F2227202B4C2F4A0D6B2DC60176DF0E
:102150002196C830D10509F0CACFDF91CF911F91E8
:102160000F91FF90EF90DF90CF90BF90AF900895C8
:10217000CF93DF9361E086E30E943F2A61E086E32C
:102180000E94782A61E08FE692E0CBDE8FE692E053
:1021900079DF47E35CE163E082E00E94E62BE5E75C
:1021A000F2E08FEF819392E0ED37F907D9F781E004
:1021B0008093FF02CDE7D2E082E0CD3FD80721F047
:1021C0000E94832E8993F8CFDF91CF910895AF922B
:1021D000BF92DF92EF92FF920F931F93CF93DF9303
:1021E0001F92CDB7DEB78091FF02811105C00E941A
:1021F000AF2B8823D1F129C01092FF0285E7A82ECA
:1022000082E0B82E0DE712E050E0F50180818823CE
:1022100099F07801D12C9701452F6D2D8FE692E032
:10222000598355DFD394F2E0EF0EF11C598188E019
:10223000D812F1CFF5011082FFEFAF1ABF0A005F8D
:102240001F4F585F503409F7D2CF0E94C22B87FD31
:1022500003C08093FE0202C01092FE028091FE0233
:102260008F3719F488E08093FE028091FE028093FC
:10227000FD021092FE020F90DF91CF911F910F91FE
:10228000FF90EF90DF90BF90AF9008958091FD0296
:102290001092FD028111806808958F7790E0FC0113
:1022A000E358FD4F20812617D1F06083FC0124E024
:1022B000F595E7952A95E1F7EB58FD4F95958795AC
:1022C0008770992720E830E002C0359527958A95D8
:1022D000E2F78081822B808381E08093FF0260930C
:1022E0007402089580E0089580E00895E82FF0E0FA
:1022F000EE0FFF1FEB5EFD4F60817181611571056F
:1023000019F48CE00C94612820E030E0A9018CE005
:102310000C94402520E047E368E38FE692E08CDDF3
:102320008EE692E00C94E52B1BC1CF92DF92EF92E8
:10233000FF92CF93DF9300D01F92CDB7DEB733D19A
:10234000282F30E040E050E02115310541055105CE
:1023500049F129833A834B835C830E942B29C090E7
:102360000003D0900103E0900203F0900303298161
:102370003A814B815C816C157D058E059F0548F384
:1023800068EE73E080E090E00E94D92D2C0D3D1D99
:102390004E1D5F1D20930003309301034093020301
:1023A000509303030F900F900F900F90DF91CF91F8
:1023B000FF90EF90DF90CF90089540911E035091D1
:1023C0000D03242F30E0C901850F911D60910F038B
:1023D000860F911D9093070380930603692F617008
:1023E00060930F03452747FF03C010920E0307C0F9
:1023F0002827392727FFF9CF21E020930E03809368
:102400001E03089590911E0380910D03292F2F70B4
:10241000382F3F70230F30910F03230F20930A03AF
:10242000392F307F807F90E0830F911D90930703B9
:102430008093060310920F032A3040F02A50209315
:102440000A03409690930703809306038091060346
:10245000909107038139910548F0805A9109909332
:1024600007038093060381E080930F0380910603A6
:1024700090910A03892B80931E030895809108038D
:10248000909109039C013C50211544E1340738F434
:10249000F901E15EFC4F80910D0380830895811561
:1024A00028E0920718F460910D03F7CE089580910B
:1024B000080390910903811528E0920750F48A5E81
:1024C0009C4EAA2797FDA095BA2FABBFFC01879120
:1024D00018C09C013C50211544E1340728F4F9014F
:1024E000E15EFC4F80810DC09C01385021153440C5
:1024F00038F48A3A9A4011F4F5DE03C0C7DE01C011
:102500008FEF80930D03089580911C038F7080934B
:102510001C0380E0E9DE811105C080911C0380610D
:1025200080931C0381E0E0DE811105C080911C03D3
:10253000806280931C0380910E03882329F0809190
:102540001C03806480931C0380910F03882329F06F
:1025500080911C03806880931C0380911C03089564
:1025600010921C0310921D0310921E03109215036B
:10257000109214031092170310921603109219036D
:102580001092180310921B0310921A0310920E035C
:1025900010920F0310921303109212031092110362
:1025A00010921003E5CD0F931F93CF93DF9380918B
:1025B0001003909111030097E9F0893823E1920705
:1025C00048F0885893419093110380931003FFDDE6
:1025D0000C943A25880F991F209112033091130310
:1025E000280F391F30931303209312031092110305
:1025F0001092100380911A0390911B0301969093FF
:102600001B0380931A0390930903809308034FDF01
:1026100080910D0380930C0387FF17C080911A03EC
:1026200090911B03019690931B0380931A03809152
:10263000080390910903019690930903809308037E
:1026400036DF80910D0380930B0380910C0390E0A3
:10265000FC01EE58FF4F0C94172E809112039091BD
:102660001303089690931303809312030C94202570
:1026700080911E0380930A0390911D0390931E0383
:1026800080931D03809112039091130307969093FA
:102690001303809312030C94202510920F03809152
:1026A00012039091130305969093130380931203E2
:1026B0000C94202581E080930F0380911203909168
:1026C0001303059690931303809312030C94202513
:1026D00080911C03877F80931C038091120390914B
:1026E0001303069690931303809312030C942025F2
:1026F00080911C03886080931C0380911203909149
:102700001303069690931303809312030C942025D1
:10271000FBDE80931E0380911203909113030596B4
:1027200090931303809312030C94202580911E0331
:1027300080931C03982F991F9927991F90930F033B
:1027400086FB992790F990930E038770CFDD8091D7
:102750001203909113030696909313038093120330
:102760000C94202580911203909113030696909368
:102770001303809312030C94202580911D03880F6E
:1027800080931D03809112039091130305969093FB
:102790001303809312030C94202580911E0390E074
:1027A0009595879580931E03809112039091130352
:1027B000059690931303809312030C942025809127
:1027C0000F0340E8849FC001112490911E03969549
:1027D000982B90931E0380911203909113030596FA
:1027E00090931303809312030C94202580911E0371
:1027F00080FB879587F980931E0380911203909147
:102800001303059690931303809312030C942025D1
:1028100030911E03232F217020930A0380910F0310
:1028200040E8849FC0011124932F9695982B909394
:102830001E0320930F0380911203909113030596BA
:1028400090931303809312030C94202580911A0314
:1028500090911B0380930A0340911E039C01222741
:10286000242B30931B0320931A0380931E03809123
:10287000120390911303089690931303809312030D
:102880000C942025809118039091190380930A03DA
:1028900040911E039C012227242B3093190320937F
:1028A000180380931E0380911203909113030896DE
:1028B00090931303809312030C94202580911603A8
:1028C0009091170380930A0340911E039C012227D5
:1028D000242B309317032093160380931E038091BB
:1028E000120390911303089690931303809312039D
:1028F0000C942025809114039091150380930A0372
:1029000040911E039C012227242B30931503209312
:10291000140380931E038091120390911303089671
:1029200090931303809312030C94202580911A0333
:1029300020911B0320930A0330911E0390E0932BF8
:1029400090931B0380931A0320931E03809112031C
:1029500090911303089690931303809312030C94A1
:102960002025809118032091190320930A033091A8
:102970001E0390E0932B90931903809318032093E8
:102980001E038091120390911303089690931303F2
:10299000809312030C942025809116032091170335
:1029A00020930A0330911E0390E0932B909317031A
:1029B0008093160320931E038091120390911303BA
:1029C000089690931303809312030C942025809112
:1029D00014032091150320930A0330911E0390E005
:1029E000932B909315038093140320931E038091DF
:1029F000120390911303089690931303809312038C
:102A00000C94202580911A0390911B039093070347
:102A1000809306038091120390911303079690937D
:102A20001303809312030C94202580911A03909134
:102A30001B039093070380930603209118033091A2
:102A4000190330931B0320931A0390931903809367
:102A50001803809112039091130307969093130328
:102A6000809312030C94202580911A0390911B03EC
:102A70009093070380930603209116033091170368
:102A800030931B0320931A0390931703809316032C
:102A900080911203909113030796909313038093F0
:102AA00012030C94202580911A0390911B0390939C
:102AB000070380930603209114033091150330938C
:102AC0001B0320931A0390931503809314038091A2
:102AD00012039091130307969093130380931203AC
:102AE0000C94202580911D0380931E038091120376
:102AF00090911303069690931303809312030C9402
:102B0000202580911E0390911D03892780931E0329
:102B10008091120390911303069690931303809370
:102B200012030C94202580911E0390911D03892B84
:102B300080931E0380911203909113030696909345
:102B40001303809312030C94202580911E0390910F
:102B50001D03892780931E03809112039091130314
:102B6000069690931303809312030C942025809172
:102B70001D0380930D0346DC809112039091130393
:102B80000B9690931303809312030C94202580914D
:102B90001D0380930D0311DC8091120390911303A8
:102BA000079690931303809312030C942025809131
:102BB0001D03809580930D0300DC8091120390919A
:102BC0001303089690931303809312030C9420250B
:102BD000C0910B03D0E0DC2FCC27009112031091A1
:102BE000130360E177E280E090E0601B710B8109E4
:102BF000910922E030E040E050E00E94FB2DC21736
:102C0000D30768F4CC0FDD1FC00FD11FD09313037F
:102C1000C093120310921103109210030CC0C21B38
:102C2000D30BD0931103C093100380E197E29093EC
:102C300013038093120310921E038091120390914C
:102C400013030D9690931303809312030C94202585
:102C500020910B03332727FD3095309305032093F4
:102C6000040380911A0390911B03820F931F90938A
:102C70001B0380931A0380911203909113030B9608
:102C800090931303809312030C94202520910B033F
:102C9000332727FD3095309305032093040380915B
:102CA000180390911903820F931F90931B03809335
:102CB0001A0380911203909113030B9690931303C0
:102CC000809312030C94202520910B03332727FDBA
:102CD000309530930503209304038091160390915F
:102CE0001703820F931F90931B0380931A03809105
:102CF0001203909113030B96909313038093120386
:102D00000C94202520910B03332727FD3095309319
:102D10000503209304038091140390911503820FFF
:102D2000931F90931B0380931A0380911203909139
:102D300013030B9690931303809312030C94202596
:102D400020910B03332727FD309530930503209303
:102D5000040380911E0387FD0AC080911A0390919D
:102D60001B03820F931F90931B0380931A03809180
:102D70001203909113030A96909313038093120306
:102D80000C94202520910B03332727FD3095309399
:102D900005032093040380911E0387FD0AC08091E0
:102DA000180390911903820F931F90931B03809334
:102DB0001A0380911203909113030A9690931303C0
:102DC000809312030C94202520910B03332727FDB9
:102DD0003095309305032093040380911E0387FDF3
:102DE0000AC08091160390911703820F931F90934E
:102DF0001B0380931A0380911203909113030A9688
:102E000090931303809312030C94202520910B03BD
:102E1000332727FD309530930503209304038091D9
:102E20001E0387FD0AC08091140390911503820F41
:102E3000931F90931B0380931A0380911203909128
:102E400013030A9690931303809312030C94202586
:102E500020910B03332727FD3095309305032093F2
:102E6000040380911E0381110AC080911A0390917E
:102E70001B03820F931F90931B0380931A0380916F
:102E80001203909113030A969093130380931203F5
:102E90000C94202520910B03332727FD3095309388
:102EA00005032093040380911E0381110AC08091C1
:102EB000180390911903820F931F90931B03809323
:102EC0001A0380911203909113030A9690931303AF
:102ED000809312030C94202520910B03332727FDA8
:102EE0003095309305032093040380911E038111D4
:102EF0000AC08091160390911703820F931F90933D
:102F00001B0380931A0380911203909113030A9676
:102F100090931303809312030C94202520910B03AC
:102F2000332727FD309530930503209304038091C8
:102F30001E0381110AC08091140390911503820F22
:102F4000931F90931B0380931A0380911203909117
:102F500013030A9690931303809312030C94202575
:102F600020910B03332727FD3095309305032093E1
:102F7000040380911E03882351F080911A039091DD
:102F80001B03820F931F90931B0380931A0380915E
:102F90001203909113030A969093130380931203E4
:102FA0000C94202520910B03332727FD3095309377
:102FB00005032093040380911E03882351F0809120
:102FC000180390911903820F931F90931B03809312
:102FD0001A0380911203909113030A96909313039E
:102FE000809312030C94202520910B03332727FD97
:102FF0003095309305032093040380911E038823AA
:1030000051F08091160390911703820F931F9093B4
:103010001B0380931A0380911203909113030A9665
:1030200090931303809312030C94202520910B039B
:10303000332727FD309530930503209304038091B7
:103040001E03882351F08091140390911503820F81
:10305000931F90931B0380931A0380911203909106
:1030600013030A9690931303809312030C94202564
:1030700020910B03332727FD3095309305032093D0
:10308000040380911A0390911B03820F931F909366
:103090000903809308030BDA80910D038F5F8093FF
:1030A0001E0380930D03EAD98091120390911303BC
:1030B000469690931303809312030C94202520913D
:1030C0000B03332727FD309530930503209304032A
:1030D0008091180390911903820F931F9093090315
:1030E00080930803E4D980910D038F5F80931E03C2
:1030F00080930D03C3D980911203909113034696D8
:1031000090931303809312030C94202520910B03BA
:10311000332727FD309530930503209304038091D6
:10312000160390911703820F931F909309038093C6
:103130000803BDD980910D038F5F80931E03809398
:103140000D039CD98091120390911303469690939E
:103150001303809312030C94202520910B03332733
:1031600027FD3095309305032093040380911403C9
:1031700090911503820F931F909309038093080386
:1031800096D980910D038F5F80931E0380930D036A
:1031900075D980911203909113034696909313036F
:1031A000809312030C94202520910B03332727FDD5
:1031B0003095309305032093040380911A03909176
:1031C0001B03820F931F90930903809308036FD909
:1031D00080910D03815080931E0380930D034ED97F
:1031E000809112039091130346969093130380935A
:1031F00012030C94202520910B03332727FD3095D3
:1032000030930503209304038091180390911903D0
:10321000820F931F909309038093080348D98091EC
:103220000D03815080931E0380930D0327D9809155
:103230001203909113034696909313038093120305
:103240000C94202520910B03332727FD30953093D4
:103250000503209304038091160390911703820FB6
:10326000931F909309038093080321D980910D0344
:10327000815080931E0380930D0300D98091120327
:1032800090911303469690931303809312030C942A
:10329000202520910B03332727FD3095309305031C
:1032A000209304038091140390911503820F931FC0
:1032B0009093090380930803FAD880910D038150FD
:1032C00080931E0380930D03D9D8809112039091AF
:1032D0001303469690931303809312030C942025B6
:1032E00020910B03203811F420911D03332727FD73
:1032F0003095309305032093040380911A03909135
:103300001B03820F931F9093090380930803CFD868
:1033100080910D0380931E038091120390911303FB
:10332000429690931303809312030C9420252091CE
:103330000B03203811F420911D03332727FD30950E
:10334000309305032093040380911803909119038F
:10335000820F931F9093090380930803A8D880914C
:103360000D0380931E0380911203909113034296E4
:1033700090931303809312030C94202520910B0348
:10338000203811F420911D03332727FD3095309309
:103390000503209304038091160390911703820F75
:1033A000931F909309038093080381D880910D03A4
:1033B00080931E0380911203909113034296909381
:1033C0001303809312030C94202520910B032038C3
:1033D00011F420911D03332727FD30953093050309
:1033E000209304038091140390911503820F931F7F
:1033F00090930903809308035AD880910D0380931A
:103400001E0380911203909113034296909313032D
:10341000809312030C94202580910B0380931E034C
:1034200080911203909113030A9690931303809353
:1034300012030C94202520910B03203811F42091C5
:103440001D03332727FD3095309305032093040394
:1034500027FF0AC08091180390911903820F931FD0
:103460009093190380931803809118039091190386
:1034700090930903809308031AD880910D038093D9
:103480001E03209104033091050327FD0AC080919B
:10349000180390911903820F931F9093190380933F
:1034A0001803809112039091130342969093130393
:1034B000809312030C94202520910B03203811F4E3
:1034C00020911D03332727FD30953093050320936A
:1034D000040327FF0AC08091160390911703820FFF
:1034E000931F909317038093160380911603909176
:1034F000170390930903809308030E945712809149
:103500000D0380931E03209104033091050327FDD2
:103510000AC08091160390911703820F931F909316
:103520001703809316038091120390911303429620
:1035300090931303809312030C94202520910B0386
:10354000203811F420911D03332727FD3095309347
:1035500005032093040327FF0AC080911403909170
:103560001503820F931F909315038093140380918A
:1035700014039091150390930903809308030E940C
:10358000571280910D0380931E0320910403309104
:10359000050327FD0AC08091140390911503820F43
:1035A000931F9093150380931403809112039091BD
:1035B0001303429690931303809312030C942025D7
:1035C00020910B03203811F420911D03332727FD90
:1035D0003095309305032093040380911A03909152
:1035E0001B03820F931F909309038093080380911C
:1035F0001E0380930D030E943E128091120390914E
:103600001303429690931303809312030C94202586
:1036100020910B03203811F420911D03332727FD3F
:103620003095309305032093040380911803909103
:103630001903820F931F90930903809308038091CD
:103640001E0380930D030E943E12809112039091FD
:103650001303429690931303809312030C94202536
:1036600020910B03203811F420911D03332727FDEF
:1036700030953093050320930403809116039091B5
:103680001703820F931F909309038093080380917F
:103690001E0380930D030E943E12809112039091AD
:1036A0001303429690931303809312030C942025E6
:1036B00020910B03203811F420911D03332727FD9F
:1036C0003095309305032093040380911403909167
:1036D0001503820F931F9093090380930803809131
:1036E0001E0380930D030E943E128091120390915D
:1036F0001303429690931303809312030C94202596
:1037000020910B03203811F420911D03332727FD4E
:103710003095309305032093040327FF0AC080915E
:10372000180390911903820F931F909319038093AC
:1037300018038091180390911903909309038093C3
:10374000080380911E0380930D030E943E12209176
:1037500004033091050327FD0AC08091180390915E
:103760001903820F931F909319038093180380917C
:1037700012039091130342969093130380931203C4
:103780000C94202520910B03203811F420911D0367
:10379000332727FD3095309305032093040327FF3B
:1037A0000AC08091160390911703820F931F909384
:1037B000170380931603809116039091170390933B
:1037C00009038093080380911E0380930D030E94D8
:1037D0003E12209104033091050327FD0AC0809119
:1037E000160390911703820F931F909317038093F2
:1037F0001603809112039091130342969093130342
:10380000809312030C94202520910B03203811F48F
:1038100020911D03332727FD309530930503209316
:10382000040327FF0AC08091140390911503820FAF
:10383000931F909315038093140380911403909128
:103840001503909309038093080380911E038093CE
:103850000D030E943E12209104033091050327FDC1
:103860000AC08091140390911503820F931F9093C7
:1038700015038093140380911203909113034296D1
:1038800090931303809312030C94202520910B0333
:10389000203811F420911D03332727FD30953093F4
:1038A00005032093040380911A0390911B03820F58
:1038B000931F90930903809308030E9457128091ED
:1038C0001E0390910D03892380931E0380911203A0
:1038D00090911303429690931303809312030C94D8
:1038E000202520910B03203811F420911D0333274C
:1038F00027FD30953093050320930403809118032E
:1039000090911903820F931F9093090380930803EA
:103910000E94571280911E0390910D03892380937A
:103920001E03809112039091130342969093130308
:10393000809312030C94202520910B03203811F45E
:1039400020911D03332727FD3095309305032093E5
:1039500004038091160390911703820F931F909395
:103960000903809308030E94571280911E039091CF
:103970000D03892380931E038091120390911303FA
:10398000429690931303809312030C942025209168
:103990000B03203811F420911D03332727FD3095A8
:1039A0003093050320930403809114039091150331
:1039B000820F931F90930903809308030E9457126C
:1039C00080911E0390910D03892380931E038091A3
:1039D0001203909113034296909313038093120362
:1039E0000C94202580911E0390910B0389238093D2
:1039F0001E0380911203909113030A969093130370
:103A0000809312030C94202520910B03203811F48D
:103A100020911D03332727FD309530930503209314
:103A2000040327FF0AC08091180390911903820FA5
:103A3000931F90931903809318038091180390911A
:103A4000190390930903809308030E9457128091F1
:103A50001E0390910D03892380931E03209104037C
:103A60003091050327FD0AC0809118039091190336
:103A7000820F931F90931903809318038091120370
:103A80009091130342969093130380931203D8C727
:103A900020910B03203811F420911D03332727FDBB
:103AA0003095309305032093040327FF0AC08091CB
:103AB000160390911703820F931F9093170380931F
:103AC0001603809116039091170390930903809336
:103AD00008030E94571280911E0390910D038923C1
:103AE00080931E03209104033091050327FD0AC033
:103AF0008091160390911703820F931F90931703E1
:103B00008093160380911203909113034296909331
:103B100013038093120394C720910B03203811F4F0
:103B200020911D03332727FD309530930503209303
:103B3000040327FF0AC08091140390911503820F9C
:103B4000931F909315038093140380911403909115
:103B5000150390930903809308030E9457128091E4
:103B60001E0390910D03892380931E03209104036B
:103B70003091050327FD0AC080911403909115032D
:103B8000820F931F90931503809314038091120367
:103B9000909113034296909313038093120350C79E
:103BA00020910B03203811F420911D03332727FDAA
:103BB0003095309305032093040380911A0390916C
:103BC0001B03820F931F90930903809308030E94A5
:103BD000571280911E0390910D03892B80931E0331
:103BE0008091120390911303429690931303809354
:103BF000120326C720910B03203811F420911D03D6
:103C0000332727FD309530930503209304038091DB
:103C1000180390911903820F931F909309038093C7
:103C200008030E94571280911E0390910D03892B67
:103C300080931E03809112039091130342969093F8
:103C4000130380931203FCC620910B03203811F458
:103C500020911D03332727FD3095309305032093D2
:103C600004038091160390911703820F931F909382
:103C70000903809308030E94571280911E039091BC
:103C80000D03892B80931E038091120390911303DF
:103C900042969093130380931203D2C620910B0394
:103CA000203811F420911D03332727FD30953093E0
:103CB0000503209304038091140390911503820F50
:103CC000931F90930903809308030E9457128091D9
:103CD0001E0390910D03892B80931E038091120384
:103CE0009091130342969093130380931203A8C6F6
:103CF00080911E0390910B03892B80931E0380916A
:103D00001203909113030A96909313038093120366
:103D100097C620910B03203811F420911D033327FF
:103D200027FD3095309305032093040327FF0AC035
:103D30008091180390911903820F931F9093190398
:103D400080931803809118039091190390930903AD
:103D5000809308030E94571280911E0390910D03D7
:103D6000892B80931E03209104033091050327FDC6
:103D70000AC08091180390911903820F931F9093AA
:103D800019038093180380911203909113034296B4
:103D9000909313038093120353C620910B03203892
:103DA00011F420911D03332727FD3095309305032F
:103DB0002093040327FF0AC08091160390911703F4
:103DC000820F931F9093170380931603809116031D
:103DD0009091170390930903809308030E94571250
:103DE00080911E0390910D03892B80931E032091D7
:103DF00004033091050327FD0AC0809116039091BA
:103E00001703820F931F90931703809316038091DB
:103E1000120390911303429690931303809312031D
:103E20000FC620910B03203811F420911D03332776
:103E300027FD3095309305032093040327FF0AC024
:103E40008091140390911503820F931F9093150393
:103E500080931403809114039091150390930903A8
:103E6000809308030E94571280911E0390910D03C6
:103E7000892B80931E03209104033091050327FDB5
:103E80000AC08091140390911503820F931F9093A1
:103E900015038093140380911203909113034296AB
:103EA0009093130380931203CBC520910B0320380A
:103EB00011F420911D03332727FD3095309305031E
:103EC0002093040380911A0390911B03820F931F88
:103ED00090930903809308030E94571280911E0358
:103EE00090910D03892780931E0380911203909176
:103EF000130342969093130380931203A1C520915C
:103F00000B03203811F420911D03332727FD309532
:103F100030930503209304038091180390911903B3
:103F2000820F931F90930903809308030E945712F6
:103F300080911E0390910D03892780931E03809129
:103F400012039091130342969093130380931203EC
:103F500077C520910B03203811F420911D033327DE
:103F600027FD3095309305032093040380911603B9
:103F700090911703820F931F909309038093080376
:103F80000E94571280911E0390910D038927809300
:103F90001E03809112039091130342969093130392
:103FA000809312034DC520910B03203811F420910A
:103FB0001D03332727FD3095309305032093040319
:103FC0008091140390911503820F931F909309031E
:103FD000809308030E94571280911E0390910D0355
:103FE000892780931E0380911203909113034296B8
:103FF000909313038093120323C580911E03909125
:104000000B03892780931E03809112039091130361
:104010000A96909313038093120312C520910B0309
:10402000203811F420911D03332727FD309530935C
:1040300005032093040327FF0AC080911803909181
:104040001903820F931F9093190380931803809193
:1040500018039091190390930903809308030E9419
:10406000571280911E0390910D03892780931E03A0
:10407000209104033091050327FD0AC080911803A5
:1040800090911903820F931F909319038093180343
:10409000809112039091130342969093130380939F
:1040A0001203CEC420910B03203811F420911D037C
:1040B000332727FD3095309305032093040327FF12
:1040C0000AC08091160390911703820F931F90935B
:1040D0001703809316038091160390911703909312
:1040E0000903809308030E94571280911E03909148
:1040F0000D03892780931E0320910403309105034B
:1041000027FD0AC08091160390911703820F931F19
:1041100090931703809316038091120390911303D9
:10412000429690931303809312038AC420910B0349
:10413000203811F420911D03332727FD309530934B
:1041400005032093040327FF0AC080911403909174
:104150001503820F931F909315038093140380918E
:1041600014039091150390930903809308030E9410
:10417000571280911E0390910D03892780931E038F
:10418000209104033091050327FD0AC08091140398
:1041900090911503820F931F90931503809314033E
:1041A000809112039091130342969093130380938E
:1041B000120346C420910B03203811F420911D03F3
:1041C000332727FD30953093050320930403809116
:1041D0001A0390911B03820F931F909309038093FE
:1041E00008030E9457120E940212809112039091BC
:1041F00013034796909313038093120321C42091D5
:104200000B03203811F420911D03332727FD30952F
:1042100030930503209304038091180390911903B0
:10422000820F931F90930903809308030E945712F3
:104230000E9402128091120390911303479690936B
:10424000130380931203FCC320910B03203811F455
:1042500020911D03332727FD3095309305032093CC
:1042600004038091160390911703820F931F90937C
:104270000903809308030E9457120E940212809142
:1042800012039091130347969093130380931203A4
:10429000D7C320910B03203811F420911D0333273D
:1042A00027FD309530930503209304038091140378
:1042B00090911503820F931F909309038093080335
:1042C0000E9457120E9402128091120390911303D0
:1042D00047969093130380931203B2C380910B030C
:1042E00080930D030E940212809112039091130398
:1042F0000F969093130380931203A2C320910B0394
:10430000203811F420911D03332727FD3095309379
:1043100005032093040327FF0AC08091180390919E
:104320001903820F931F90931903809318038091B0
:1043300018039091190390930903809308030E9436
:1043400057120E940212209104033091050327FDA9
:104350000AC08091180390911903820F931F9093C4
:1043600019038093180380911203909113034796C9
:10437000909313038093120363C320910B0320389F
:1043800011F420911D03332727FD30953093050349
:104390002093040327FF0AC080911603909117030E
:1043A000820F931F90931703809316038091160337
:1043B0009091170390930903809308030E9457126A
:1043C0000E940212209104033091050327FD0AC0C8
:1043D0008091160390911703820F931F90931703F8
:1043E0008093160380911203909113034796909344
:1043F00013038093120324C320910B03203811F47C
:1044000020911D03332727FD30953093050320931A
:10441000040327FF0AC08091140390911503820FB3
:10442000931F90931503809314038091140390912C
:10443000150390930903809308030E9457120E946A
:104440000212209104033091050327FD0AC08091D8
:10445000140390911503820F931F9093150380937B
:1044600014038091120390911303479690931303C2
:1044700080931203E5C220910B03203811F42091A0
:104480001D03332727FD3095309305032093040344
:1044900080911A0390911B03820F931F909309033D
:1044A000809308030E9457120E94DD11809112032D
:1044B0009091130343969093130380931203C0C209
:1044C00020910B03203811F420911D03332727FD81
:1044D0003095309305032093040380911803909145
:1044E0001903820F931F90930903809308030E947E
:1044F00057120E94DD11809112039091130343968D
:1045000090931303809312039BC220910B032038D6
:1045100011F420911D03332727FD309530930503B7
:10452000209304038091160390911703820F931F29
:1045300090930903809308030E9457120E94DD1193
:1045400080911203909113034396909313038093E9
:10455000120376C220910B03203811F420911D0321
:10456000332727FD30953093050320930403809172
:10457000140390911503820F931F90930903809366
:1045800008030E9457120E94DD118091120390913E
:1045900013034396909313038093120351C28091A7
:1045A0000B0380930D030E94DD1180911203909103
:1045B00013030B96909313038093120341C220912F
:1045C0000B03203811F420911D03332727FD30956C
:1045D000309305032093040327FF0AC0809118033A
:1045E00090911903820F931F9093190380931803DE
:1045F0008091180390911903909309038093080305
:104600000E9457120E94DD1120910403309105038E
:1046100027FD0AC08091180390911903820F931F00
:1046200090931903809318038091120390911303C0
:104630004396909313038093120302C220910B03BD
:10464000203811F420911D03332727FD3095309336
:1046500005032093040327FF0AC08091160390915D
:104660001703820F931F9093170380931603809173
:1046700016039091170390930903809308030E94F7
:1046800057120E94DD11209104033091050327FD8C
:104690000AC08091160390911703820F931F909385
:1046A000170380931603809112039091130343968E
:1046B0009093130380931203C3C120910B032038FE
:1046C00011F420911D03332727FD30953093050306
:1046D0002093040327FF0AC08091140390911503CF
:1046E000820F931F909315038093140380911403FA
:1046F0009091150390930903809308030E94571229
:104700000E94DD11209104033091050327FD0AC0AA
:104710008091140390911503820F931F90931503BA
:104720008093140380911203909113034396909306
:1047300013038093120384C120910B03203811F4DA
:1047400020911D03332727FD3095309305032093D7
:10475000040380911A0390911B03820F931F90937F
:104760000903809308030E94571280910D038095DE
:1047700080930D030E94DD11809112039091130329
:10478000449690931303809312035AC120910B0314
:10479000203811F420911D03332727FD30953093E5
:1047A0000503209304038091180390911903820F4D
:1047B000931F90930903809308030E9457128091DE
:1047C0000D03809580930D030E94DD1180911203EB
:1047D000909113034496909313038093120330C176
:1047E00020910B03203811F420911D03332727FD5E
:1047F0003095309305032093040380911603909124
:104800001703820F931F90930903809308030E945C
:10481000571280910D03809580930D030E94DD1146
:104820008091120390911303449690931303809305
:10483000120306C120910B03203811F420911D03AF
:10484000332727FD3095309305032093040380918F
:10485000140390911503820F931F90930903809383
:1048600008030E94571280910D03809580930D03D9
:104870000E94DD118091120390911303449690934E
:10488000130380931203DCC080910B038095809307
:104890000D030E94DD1180911203909113030C9679
:1048A0009093130380931203CBC020910B03203805
:1048B00011F420911D03332727FD30953093050314
:1048C0002093040327FF0AC08091180390911903D5
:1048D000820F931F909319038093180380911803FC
:1048E0009091190390930903809308030E94571233
:1048F00080910D03809580930D030E94DD1120911E
:1049000004033091050327FD0AC08091180390919C
:104910001903820F931F90931903809318038091BA
:104920001203909113034496909313038093120300
:1049300087C020910B03203811F420911D033327E9
:1049400027FD3095309305032093040327FF0AC009
:104950008091160390911703820F931F9093170372
:104960008093160380911603909117039093090387
:10497000809308030E94571280910D0380958093C5
:104980000D030E94DD11209104033091050327FDE2
:104990000AC08091160390911703820F931F909382
:1049A000170380931603809112039091130344968A
:1049B000909313038093120343C020910B0320387C
:1049C00011F420911D03332727FD30953093050303
:1049D0002093040327FF0AC08091140390911503CC
:1049E000820F931F909315038093140380911403F7
:1049F0009091150390930903809308030E94571226
:104A000080910D03809580930D030E94DD1120910C
:104A100004033091050327FD0AC08091140390918F
:104A20001503820F931F90931503809314038091B5
:104A300012039091130344969093130380931203EF
:104A40008091120390911303803127E2920780F046
:104A50008051974290931303809312030E94E710B2
:104A600082E00E947411882329F00E94B01202C0D3
:104A700080E001C082E3DF91CF911F910F910895F3
:104A80003F924F925F926F927F928F929F92AF92DE
:104A9000BF92CF92DF92EF92FF920F931F93CF932B
:104AA000DF9300D01F92CDB7DEB78B0129013A0109
:104AB00090910402981721F09F3F09F0B2C204C000
:104AC000E6E1FBE1349004C180930402E6E1FBE1FE
:104AD000E491EF3F09F4A5C2E23009F480C074F517
:104AE000EE2309F45BC0E13009F0F1C010928000C0
:104AF0001092810090918100986090938100909134
:104B00008100916090938100282F30E0F901ED55EC
:104B1000F44EE491F0E0EE0FFF1FED5FF34E459190
:104B2000549150933D1740933C17F901E35AF44ECA
:104B3000249120933B1733243394CCC0E43009F400
:104B40009EC00CF474C0E53009F0C1C01092200181
:104B500010922101909121019860909321019091F0
:104B60002101916090932101282F30E0F901ED554A
:104B7000F44EE491F0E0EE0FFF1FED5FF34E459130
:104B800054915093211740932017F901E35AF44EA2
:104B9000249120931F1755E0352E9CC014BC15BCE2
:104BA00094B5926094BD95B5916095BD282F30E085
:104BB000F901ED55F44EE491F0E0EE0FFF1FED5FCB
:104BC000F34E459154915093441740934317F90184
:104BD000E35AF44E249120934217312C7BC010925B
:104BE000B0001092B1009091B00092609093B0002C
:104BF0009091B10091609093B100282F30E0F901BD
:104C0000ED55F44EE491F0E0EE0FFF1FED5FF34E33
:104C1000459154915093361740933517F901E35A53
:104C2000F44E24912093341722E0322E53C0109278
:104C30009000109291009091910098609093910053
:104C400090919100916090939100282F30E0F901AC
:104C5000ED55F44EE491F0E0EE0FFF1FED5FF34EE3
:104C60004591549150932F1740932E17F901E35A11
:104C7000F44E249120932D17B3E03B2E2BC01092BD
:104C8000A0001092A1009091A10098609093A100C3
:104C90009091A10091609093A100282F30E0F9013C
:104CA000ED55F44EE491F0E0EE0FFF1FED5FF34E93
:104CB000459154915093281740932717F901E35ACF
:104CC000F44E24912093261774E0372E03C03E2E15
:104CD00037FCA7C161E0D3D34801A12CB12C832DAF
:104CE0008D7F09F0C1C060E072E18AE790E0A50124
:104CF000940181D729833A834B835C8369017A01CC
:104D000081E0C81AD108E108F1089FEFC916D10463
:104D1000E104F10409F008F495C060E472E48FE066
:104D200090E0A501940167D769017A01E1E0CE1A0C
:104D3000D108E108F108F2E03F1218C08FEFC81661
:104D4000D104E104F10409F008F486C060E970EDD3
:104D500083E090E0A50194014ED769017A0191E0CA
:104D6000C91AD108E108F10883E001C082E0EFEF41
:104D7000CE16D104E104F10409F008F464C068E43B
:104D800078EE81E090E0A501940135D769017A01C0
:104D9000F1E0CF1AD108E108F1083320D9F082E020
:104DA00038121AC09FEFC916D104E104F10409F0CA
:104DB00008F435C164E274EF80E090E0A50194014D
:104DC0001AD769017A01E1E0CE1AD108E108F108A9
:104DD00085E003C083E001C084E0FFEFCF16D1047B
:104DE000E104F10481F178F162E17AE780E090E09A
:104DF000A501940100D769017A0181E0C81AD108A0
:104E0000E108F108311002C084E001C086E09FEFA4
:104E1000C916D104E104F104B1F0A8F0C980DA8028
:104E2000EB80FC809AE0F594E794D794C7949A9528
:104E3000D1F7E1E0CE1AD108E108F108332031F0D2
:104E400087E00BC081E0332011F007C085E095B505
:104E5000987F982B95BD54C082E09091B100987FC7
:104E6000982B9093B1004CC060E072E18AE790E02B
:104E7000A5019401C0D669017A01F1E0CF1AD108E9
:104E8000E108F108C114D10481E0E806F10480F0E2
:104E900068E478EE81E090E0A5019401ACD6690168
:104EA0007A0191E0C91AD108E108F10893E001C044
:104EB00091E0E1E03E1207C080918100887F892B5C
:104EC000809381001DC0F3E03F1207C080919100E4
:104ED000887F892B8093910013C084E0381207C02B
:104EE0008091A100887F892B8093A10009C0E5E013
:104EF0003E1206C080912101887F892B8093210179
:104F0000411451046104710461F0D801AA0FBB1F60
:104F1000A301920192D628EE33E040E050E049D65A
:104F200003C02FEF3FEFA901F2E03F1609F443C0A1
:104F3000F315BCF0332081F181E0381272C0D092B9
:104F40008900C092880020933E1730933F1740930A
:104F500040175093411780916F00826080936F00DB
:104F600060C094E0391609F448C03916A4F1E5E0B0
:104F70003E1257C0D0922901C092280120932217D7
:104F80003093231740932417509325178091730073
:104F900082608093730045C0C7BC2093451730934F
:104FA0004617409347175093481780916E008260D0
:104FB00080936E0036C0C092B300209337173093B1
:104FC00038174093391750933A17809170008260D8
:104FD0008093700026C0D0929900C09298002093D0
:104FE0003017309331174093321750933317809115
:104FF000710082608093710014C0D092A900C092A9
:10500000A8002093291730932A1740932B17509309
:105010002C178091720082608093720002C084E03D
:105020001CCF0F900F900F900F90DF91CF911F9199
:105030000F91FF90EF90DF90CF90BF90AF909F9037
:105040008F907F906F905F904F903F900895823047
:10505000A9F028F4882349F0813051F00895843074
:1050600021F1E8F0853039F1089510926E0008952D
:1050700080916F008D7F80936F0008958091700004
:105080008D7F8093700081E08093B0008091B100AB
:10509000887F84608093B1001092B300089580915E
:1050A00071008D7F809371000895809172008D7FD3
:1050B000809372000895809173008D7F80937300B8
:1050C0000895CF93C82F809104028C1307C0E6E1A6
:1050D000FBE184919FEF9093040201C08FEFB7DF53
:1050E00060E08C2FCF9104C21F920F920FB60F92E7
:1050F00011240BB60F922F933F934F935F936F93AF
:105100007F938F939F93AF93BF93EF93FF93809180
:10511000371790913817A0913917B0913A17892B0A
:105120008A2B8B2B51F190913417E0913517F09128
:10513000361780818927808380913717909138179F
:10514000A0913917B0913A17181619061A061B06BE
:10515000BCF48091371790913817A0913917B0910E
:105160003A170197A109B10980933717909338171F
:10517000A0933917B0933A1703C080910402A1DFBE
:10518000FF91EF91BF91AF919F918F917F916F911F
:105190005F914F913F912F910F900BBE0F900FBEDB
:1051A0000F901F9018950895B5D0FDDF0E949411BF
:1051B000C0E0D0E00E9495112097E1F30E9400002A
:1051C000F9CF1F920F920FB60F9211242F933F9396
:1051D0008F939F93AF93BF9380914A1790914B17F2
:1051E000A0914C17B0914D173091491723E0230F30
:1051F0002D3720F40196A11DB11D05C026E8230F0F
:105200000296A11DB11D2093491780934A179093D0
:105210004B17A0934C17B0934D1780914E17909158
:105220004F17A0915017B09151170196A11DB11DB4
:1052300080934E1790934F17A0935017B093511728
:10524000BF91AF919F918F913F912F910F900FBE82
:105250000F901F9018952FB7F89460914A1770918E
:105260004B1780914C1790914D172FBF08953FB762
:10527000F89480914E1790914F17A0915017B091CC
:10528000511726B5A89B05C02F3F19F00196A11D07
:10529000B11D3FBF6627782F892F9A2F620F711D8E
:1052A000811D911D42E0660F771F881F991F4A9547
:1052B000D1F70895CF92DF92EF92FF92CF93DF93D1
:1052C0006B017C01D4DFEB01C114D104E104F104D2
:1052D00079F06BD1CCDF6C1B7D0B683E7340A0F383
:1052E00081E0C81AD108E108F108C851DC4FECCFC1
:1052F000DF91CF91FF90EF90DF90CF9008958230B3
:10530000910538F0880F991F880F991F059701970D
:10531000F1F70895789484B5826084BD84B5816086
:1053200084BD85B5826085BD85B5816085BDEEE6AD
:10533000F0E0808181608083E1E8F0E0108280818C
:1053400082608083808181608083E0E8F0E08081FA
:1053500081608083E1EBF0E0808184608083E0EB1A
:10536000F0E0808181608083E1E9F0E0808182600B
:105370008083808181608083E0E9F0E080818160CA
:105380008083E1EAF0E080818260808380818160B7
:105390008083E0EAF0E0808181608083E1E2F1E0F7
:1053A000808182608083808181608083E0E2F1E09F
:1053B000808181608083EAE7F0E08081846080837F
:1053C0008081826080838081816080838081806829
:1053D00080831092C100089590E0FC013197E23182
:1053E000F10508F04BC0EE58FE4F21C480918000BB
:1053F0008F7703C0809180008F7D80938000089517
:1054000080918000877FF9CF84B58F7702C084B503
:105410008F7D84BD08958091B0008F7703C0809107
:10542000B0008F7D8093B0000895809190008F77B9
:1054300007C0809190008F7D03C080919000877F8E
:105440008093900008958091A0008F7707C080918D
:10545000A0008F7D03C08091A000877F8093A00073
:105460000895809120018F7707C0809120018F7D62
:1054700003C080912001877F809320010895CF93FE
:10548000DF9390E0FC01E35AF44E2491FC01ED55CA
:10549000F44E8491882349F190E0880F991FFC0114
:1054A000E35EF34EA591B4918D5F934EFC01C591DF
:1054B000D4919FB7611108C0F8948C9120958223F4
:1054C0008C93888182230AC0623051F4F8948C91C5
:1054D000322F309583238C938881822B888304C05C
:1054E000F8948C91822B8C939FBFDF91CF9108957C
:1054F0000F931F93CF93DF931F92CDB7DEB7282F63
:1055000030E0F901E95EF44E8491F901E35AF44E7A
:105510001491F901ED55F44E04910023C1F0882354
:1055200019F0698359DF6981E02FF0E0EE0FFF1F6A
:10553000ED5FF34EA591B4919FB7F8948C916111F2
:1055400003C01095812301C0812B8C939FBF0F90C6
:10555000DF91CF911F910F910895CF93DF93282F63
:1055600030E0F901E95EF44E8491F901E35AF44E1A
:10557000D491F901ED55F44EC491CC2389F08111F9
:105580002BDFEC2FF0E0EE0FFF1FE751F44EA5915B
:10559000B4912C912D2381E090E021F480E002C0B1
:1055A00080E090E0DF91CF91089508952091591700
:1055B00030915A1790915217D901A05FBE4F809138
:1055C0005E1740915F17841304C09093521780E0D8
:1055D00008958F5F8D3208F080E0E82FF0E0E05A08
:1055E000F84EE08180935E17EE2379F3E03F11F4EB
:1055F0009160E5CFE03E11F49260E1CF90FF0EC0E4
:10560000E23111F49B7F08C0E93511F4977F04C0A3
:10561000E13111F491FD9F7E9C7FD1CFE23111F4F5
:105620009460CDCFE93511F49860C9CFE13111F420
:1056300091FD906191FF08C0EA54E43318F5F0E061
:10564000E75CFD4FE0811FC094FF09C08C91882367
:1056500031F0E838B8F4F0E0EF5EFE4F08C0892F73
:105660008C7041F0E83870F4F0E0E857FF4FE20F3B
:10567000F31F06C0E83830F4A9014E0F511DFA019E
:10568000E49101C0E0E09C7FEE2309F498CF909371
:1056900052178E2F0895CF92DF92EF92FF920F93C1
:1056A0001F93CF93DF9380915D1757DFEC01D3DD1C
:1056B0000091551710915617209157173091581790
:1056C0006B017C01C01AD10AE20AF30A9701860134
:1056D0000B3F11052105310520F01092541710924F
:1056E00053176093551770935617809357179093DD
:1056F0005817909154178FEF890F883050F4DD2799
:1057000001C0CC0F8A95EAF7809153178C2B8093B8
:10571000531781E0890F809354178B30B9F480912F
:105720005F178F5F8D3208F080E090915E178917C8
:1057300049F0E82FF0E090915317E05AF84E90832B
:1057400080935F171092541710925317DF91CF91E7
:105750001F910F91FF90EF90DF90CF90089580916F
:105760005C1781110DC080915B17811109C01EDF8C
:10577000982F80935C1781E0911103C080E0089519
:1057800081E0089580915B17882319F010925B17D0
:1057900017C080915C17882319F010925C1701C024
:1057A00005DF87FF0BC0982F9F73906890935B175E
:1057B0008295869586958370806C02C0882311F04F
:1057C00090E008958FEF9FEF08950895CF93DF93B2
:1057D000D82FC62F80935D1750935A1740935917AF
:1057E00062E08C2F4CDE62E08D2F49DEC250C43166
:1057F00030F4EC2FF0E0EB5DFD4F808101C08FEFC6
:1058000010925F1710925E178F3F39F042E050E020
:105810006BE47BE2DF91CF9104C0DF91CF910895DB
:105820000895883008F06CC0E82FF0E0EE0FFF1FFD
:10583000EB5FFD4F7183608390E0FC013197E730AF
:10584000F10588F5EC57FE4FF2C1809169008C7F1D
:10585000842B80936900E89A089580916900440F31
:10586000551F440F551F837F842B80936900E99A4D
:1058700008958091690074E0440F551F7A95E1F70F
:105880008F7C842B80936900EA9A08958091690047
:1058900066E0440F551F6A95E1F78F73842B809360
:1058A0006900EB9A089580916A008C7F842B809325
:1058B0006A00EC9A089580916A00440F551F440FC6
:1058C000551F837F842B80936A00ED9A0895809101
:1058D0006A0024E0440F551F2A95E1F78F7C842B42
:1058E00080936A00EE9A089580916A0096E0440FD2
:1058F000551F9A95E1F78F73842B80936A00EF9A76
:1059000008951F920F920FB60F9211240BB60F92AB
:105910002F933F934F935F936F937F938F939F93B7
:10592000AF93BF93EF93FF93E0910902F0910A02C6
:105930001995FF91EF91BF91AF919F918F917F91B9
:105940006F915F914F913F912F910F900BBE0F90F0
:105950000FBE0F901F9018951F920F920FB60F92C7
:1059600011240BB60F922F933F934F935F936F9336
:105970007F938F939F93AF93BF93EF93FF93E091A8
:105980000B02F0910C021995FF91EF91BF91AF912D
:105990009F918F917F916F915F914F913F912F9147
:1059A0000F900BBE0F900FBE0F901F9018951F9277
:1059B0000F920FB60F9211240BB60F922F933F93B5
:1059C0004F935F936F937F938F939F93AF93BF9307
:1059D000EF93FF93E0910D02F0910E021995FF9164
:1059E000EF91BF91AF919F918F917F916F915F9157
:1059F0004F913F912F910F900BBE0F900FBE0F90C4
:105A00001F9018951F920F920FB60F9211240BB68C
:105A10000F922F933F934F935F936F937F938F9347
:105A20009F93AF93BF93EF93FF93E0910F02F09199
:105A300010021995FF91EF91BF91AF919F918F91B6
:105A40007F916F915F914F913F912F910F900BBE7E
:105A50000F900FBE0F901F9018951F920F920FB6C8
:105A60000F9211240BB60F922F933F934F935F9396
:105A70006F937F938F939F93AF93BF93EF93FF9316
:105A8000E0910502F09106021995FF91EF91BF9107
:105A9000AF919F918F917F916F915F914F913F91C6
:105AA0002F910F900BBE0F900FBE0F901F90189567
:105AB0001F920F920FB60F9211240BB60F922F93D5
:105AC0003F934F935F936F937F938F939F93AF9386
:105AD000BF93EF93FF93E0910702F09108021995AD
:105AE000FF91EF91BF91AF919F918F917F916F91B6
:105AF0005F914F913F912F910F900BBE0F900FBE72
:105B00000F901F9018951F920F920FB60F921124AD
:105B10000BB60F922F933F934F935F936F937F93A7
:105B20008F939F93AF93BF93EF93FF93E0911102F5
:105B3000F09112021995FF91EF91BF91AF919F9152
:105B40008F917F916F915F914F913F912F910F9026
:105B50000BBE0F900FBE0F901F9018951F920F92C3
:105B60000FB60F9211240BB60F922F933F934F93C2
:105B70005F936F937F938F939F93AF93BF93EF93B5
:105B8000FF93E0911302F09114021995FF91EF91A8
:105B9000BF91AF919F918F917F916F915F914F9145
:105BA0003F912F910F900BBE0F900FBE0F901F9043
:105BB0001895A1E21A2EAA1BBB1BFD010DC0AA1F3E
:105BC000BB1FEE1FFF1FA217B307E407F50720F066
:105BD000A21BB30BE40BF50B661F771F881F991FE1
:105BE0001A9469F760957095809590959B01AC012A
:105BF000BD01CF010895052E97FB16F400940FD038
:105C000057FD05D0D6DF07FC02D046F408C05095FA
:105C10004095309521953F4F4F4F5F4F0895909598
:105C20008095709561957F4F8F4F9F4F0895EE0F30
:105C3000FF1F0590F491E02D19940DD0A59F900DB4
:105C4000B49F900DA49F800D911D1124089507907D
:105C5000F691E02D1994A29FB001B39FC001A39FBC
:105C6000700D811D1124911DB29F700D811D112495
:105C7000911D08958F929F92AF92BF92CF92DF9223
:105C8000EF92FF92CF93DF93EC01688179818A8153
:105C90009B81611571058105910521F464E279ED1F
:105CA0008BE597E02DE133EF41E050E0A4DF4901BF
:105CB0005A019B01AC01A7EAB1E4BFDF6B017C0193
:105CC000ACEEB4EFA50194012ED0C60ED71EE81E8F
:105CD000F91EF7FE06C081E0C81AD108E10880E885
:105CE000F80AC882D982EA82FB82C6019F77DF91D7
:105CF000CF91FF90EF90DF90CF90BF90AF909F90AB
:105D00008F900895B7CF80E092E0B4CFA0E0B0E0EC
:105D10008093000290930102A0930202B0930302C9
:105D20000895B7FF8ACF89DF821B930B0895F894FB
:025D3000FFCFA3
:105D320001000000FF102C102C102C102C102C1025
:105D42002C102C102C00001801860108028A020C6B
:105D520003DA02BF010001FFFFFFFFFFFFFFFFFFAA
:105D6200FFFFFFFFFF050403022F000000000000F9
:105D72000000000000000000000D00000000000014
:105D82000000000000000000000008000000000009
:0E5D92007F0A00150B000000001A0000190027
:00000001FF
