:100000000C94E9460C948A640C94B5640C94E064F6
:100010000C940B650C9436650C9461650C948C659E
:100020000C94B7650C941A470C941A470C941A4711
:100030000C941A470C947D600C941A470C941A4740
:100040000C941A470C941A470C941A470C941A47AC
:100050000C941A470C941A470C941A470C94EA60B3
:100060000C941A470C941A470C941A470C941A478C
:100070000C941A470C941A470C941A470C941A477C
:100080000C941A470C941A470C941A470C941A476C
:100090000C941A470C941A470C941A470C941A475C
:1000A0000C941A470C941A470C941A470C941A474C
:1000B0000C941A470C941A470C941A470C941A473C
:1000C0000C941A470C941A470C941A470C941A472C
:1000D0000C941A470C941A470C941A470C941A471C
:1000E0000C941A47344B3F4B544B614B6F4B7F4B37
:1000F0008F4B9D4BB94B295D295D295D295D295D9C
:10010000295D295D295D295D295D295D295D295DBF
:10011000295D295D295DC44B295D295DD64BE84BDE
:10012000FF4B114C295D295D295D295D295D295D04
:10013000295D295D295D295D295D295D295D295D8F
:10014000295D295D2F4C4B4C674C834C9F4CBA4C1E
:10015000D54CF04C295D295D295D295D0B4D1E4D67
:100160003D4D5C4D7B4D295D295D295D295D295DF6
:10017000295D295D295D295D295D295D295D295D4F
:10018000295D295D8A4D295D295D295D295D295DEE
:10019000295D295D9C4D295D295D295D295D295DCC
:1001A000295D295DAE4D295D295D295D295D295DAA
:1001B000295D295DC04D295D295D295D295D295D88
:1001C000295D295DD04D295D295D295D295D295D68
:1001D000295D295DE04D295D295D295D295D295D48
:1001E000295D295D295D295D295D295D295D295DDF
:1001F000295D295D295D295D295D295D295D295DCF
:10020000295DF14D314E4F4E6D4E8B4EA94ECB4E6A
:10021000ED4E0F4F314F534F754F974FB94FDB4F47
:10022000FD4F1F50295D295D295D295D295D295DEF
:10023000295D295D415068508F50B650295D295D78
:10024000295D295D295D295D295D295D295D295D7E
:10025000295D295DDD5004512B515251295D295DE5
:10026000295D295D7951A051C751EE511552245293
:100270006552A752E952115339536153295D89538D
:10028000CB530D544F547A54A554D054FB540D55B0
:1002900051559555D95503562D5657568156925658
:1002A000D6561A575E578857B257DC570658175814
:1002B0005B589F58E35808592D5952597759875917
:1002C000C659055A445A695A8E5AB35AD85AE85AE6
:1002D000275B665BA55BCF5BF95B235C4D5C5E5C7B
:1002E000A25CE65C0D621062FF6103620962476214
:1002F000146218621E62226226622C6230623462CC
:1003000047623A623E62426264642E6436644264CA
:100310004F6470647D643800440054005C005800F1
:1003200040003C0000001800240042007E00420013
:100330004200420000007C00220022003C0022001B
:1003400022007C0000001C00220040004000400011
:1003500022001C000000780024002200220022005D
:100360002400780000007E0040004000780040003B
:1003700040007E0000007E00400040007800400009
:100380004000400000001C00220040004E004200DF
:1003900022001C0000004200420042007E00420099
:1003A0004200420000001C0008000800080008008D
:1003B00008001C0000000E000400040004000400FB
:1003C000440038000000420044004800700048002B
:1003D0004400420000004000400040004000400057
:1003E00040007E000000420066005A005A004200B1
:1003F0004200420000004200620052004A004600F3
:100400004200420000001800240042004200420066
:100410002400180000007C00420042007C004000E4
:1004200040004000000018002400420042004A0042
:1004300024001A0000007C00420042007C004800BA
:100440004400420000003C00420040003C0002002A
:1004500042003C0000003E000800080008000800C0
:100460000800080000004200420042004200420032
:1004700042003C00000042004200420024002400F0
:100480001800180000004200420042005A005A00C2
:1004900066004200000042004200240018002400D0
:1004A0004200420000002200220022001C0008003E
:1004B0000800080000007C00040008001000200074
:1004C00040007C0000007C00600060006000600074
:1004D00060007C00000000004000200010000800C8
:1004E0000400000000007C000C000C000C000C005C
:1004F0000C007C00000000000000100028004400F8
:1005000000000000000000000000000000000000EB
:1005100000007C000000000000000000000000005F
:10052000000000000000100010001000100010007B
:100530000000100000002800280028000000000033
:10054000000000000000280028007C0028007C003B
:1005500028002800000010003C0050003800140063
:100560007800100000006000640008001000200007
:100570004C000C00000020005000500020005400EF
:1005800048003400000010001000100000000000BF
:10059000000000000000100020004000400040006B
:1005A00020001000000010000800040004000400F7
:1005B000080010000000100054003800100038003F
:1005C0005400100000000000100010007C0010001B
:1005D00010000000000000000000000000001000FB
:1005E0001000200000000000000000007C0000005F
:1005F00000000000000000000000000000000000FB
:10060000000010000000000004000800100020009E
:100610004000000000003C00420046005A0062001A
:1006200042003C00000008001800280008000800F4
:1006300008003E0000003C00420002000C003000B8
:1006400040007E0000003C00420002003C0002002E
:1006500042003C00000004000C00140024007E0056
:100660000400040000007E00400078000400020046
:100670004400380000001C00200040007C004200C4
:1006800042003C0000007E00420004000800100010
:100690001000100000003C00420042003C004200FC
:1006A00042003C0000003C00420042003E000200CC
:1006B00004003800000000000000100000001000DE
:1006C000000000000000000000001000000010000A
:1006D0001000200000000800100020004000200052
:1006E000100008000000000000007C0000007C00FA
:1006F00000000000000020001000080004000800B6
:100700001000200000003800440008001000100015
:1007100000001000000000000000000000000000C9
:10072000000000000000F000F000F00000000000F9
:100730000000000000000F000F000F00000000008C
:10074000000000000000FF00FF00FF0000000000AC
:10075000000000000000000000000000F000F000B9
:10076000000000000000F000F000F000F000F000D9
:100770000000000000000F000F000F00F000F0006C
:10078000000000000000FF00FF00FF00F000F0008C
:100790000000000000000000000000000F000F003B
:1007A000000000000000F000F000F0000F000F005B
:1007B0000000000000000F000F000F000F000F00EE
:1007C000000000000000FF00FF00FF000F000F000E
:1007D000000000000000000000000000FF00FF001B
:1007E000000000000000F000F000F000FF00FF003B
:1007F0000000000000000F000F000F00FF00FF00CE
:10080000000000000000FF00FF00FF00FF00FF00ED
:1008100000000000000000000000000000000000D8
:10082000F000F000F000F000F000F0000000000028
:10083000F000F000F0000F000F000F0000000000BB
:10084000F000F000F000FF00FF00FF0000000000DB
:10085000F000F000F000000000000000F000F000E8
:10086000F000F000F000F000F000F000F000F00008
:10087000F000F000F0000F000F000F00F000F0009B
:10088000F000F000F000FF00FF00FF00F000F000BB
:10089000F000F000F0000000000000000F000F006A
:1008A000F000F000F000F000F000F0000F000F008A
:1008B000F000F000F0000F000F000F000F000F001D
:1008C000F000F000F000FF00FF00FF000F000F003D
:1008D000F000F000F000000000000000FF00FF004A
:1008E000F000F000F000F000F000F000FF00FF006A
:1008F000F000F000F0000F000F000F00FF00FF00FD
:10090000F000F000F000FF00FF00FF00FF00FF001C
:10091000F000F000F0000000000000000000000007
:100920000F000F000F00F000F000F00000000000CA
:100930000F000F000F000F000F000F00000000005D
:100940000F000F000F00FF00FF00FF00000000007D
:100950000F000F000F00000000000000F000F0008A
:100960000F000F000F00F000F000F000F000F000AA
:100970000F000F000F000F000F000F00F000F0003D
:100980000F000F000F00FF00FF00FF00F000F0005D
:100990000F000F000F000000000000000F000F000C
:1009A0000F000F000F00F000F000F0000F000F002C
:1009B0000F000F000F000F000F000F000F000F00BF
:1009C0000F000F000F00FF00FF00FF000F000F00DF
:1009D0000F000F000F00000000000000FF00FF00EC
:1009E0000F000F000F00F000F000F000FF00FF000C
:1009F0000F000F000F000F000F000F00FF00FF009F
:100A00000F000F000F00FF00FF00FF00FF00FF00BE
:100A10000F000F000F0000000000000000000000A9
:100A2000FF00FF00FF00F000F000F00000000000F9
:100A3000FF00FF00FF000F000F000F00000000008C
:100A4000FF00FF00FF00FF00FF00FF0000000000AC
:100A5000FF00FF00FF00000000000000F000F000B9
:100A6000FF00FF00FF00F000F000F000F000F000D9
:100A7000FF00FF00FF000F000F000F00F000F0006C
:100A8000FF00FF00FF00FF00FF00FF00F000F0008C
:100A9000FF00FF00FF000000000000000F000F003B
:100AA000FF00FF00FF00F000F000F0000F000F005B
:100AB000FF00FF00FF000F000F000F000F000F00EE
:100AC000FF00FF00FF00FF00FF00FF000F000F000E
:100AD000FF00FF00FF00000000000000FF00FF001B
:100AE000FF00FF00FF00F000F000F000FF00FF003B
:100AF000FF00FF00FF000F000F000F00FF00FF00CE
:100B0000FF00FF00FF00FF00FF00FF00FF00FF00ED
:100B1000FF00FF00FF0000000000000000000000D8
:100B200000000000FF0000000000000000000000C6
:100B30000000FF00000000000000000000000000B6
:100B4000FF00000000000000000000000000FF00A7
:100B5000000000000000000000000000FF00000096
:100B600000000000000000000000FF000000000086
:100B70000000000000000000FF0000000000000076
:100B8000000000000000FF00000000000000000066
:100B900000000000000080008000800080008000D5
:100BA0008000800080004000400040004000400085
:100BB00040004000400020002000200020002000D5
:100BC0002000200020001000100010001000100075
:100BD00010001000100008000800080008000800BD
:100BE00008000800080004000400040004000400D9
:100BF00004000400040002000200020002000200DF
:100C000002000200020001000100010001000100D9
:100C1000010001000100FF00FE00FC00F800F000F0
:100C2000E000C00080000100030007000F001F006B
:100C30003F007F00FF00FF007F003F001F000F000C
:100C40000700030001008000C000E000F000F80091
:100C5000FC00FE00FF008100420024001800180084
:100C6000240042008100010002000400080010007E
:100C7000200040008000800040002000100008009C
:100C8000040002000100AA005500AA00550000005F
:100C90000000000000000000000000000000AA00AA
:100CA0005500AA005500A0005000A0005000A00070
:100CB0005000A00050000A0005000A0005000A00CC
:100CC00005000A000500AA005500AA005500AA0068
:100CD0005500AA005500FF000100010001000100BD
:100CE00001000100010001000100010001000100FC
:100CF00001000100FF008000800080008000800073
:100D000080008000FF00FF008000800080008000E5
:100D10008000800080006600FF00FF00FF007E0072
:100D20003C00180018003C003C0018004200E7009E
:100D3000E70018003C0018003C007E00FF00FF00A8
:100D40005A0018003C0018003C007E00FF00FF0025
:100D50007E003C001800180018003C007E00FF00D8
:100D6000DB0018003C00300038009C00FF00FF0052
:100D70009C00380030003C001800DB00FF007E00C3
:100D80003C00180018000C001C003900FF00FF0098
:100D900039001C000C000000080008002A003E007A
:100DA0003E003E002200000001000A001C003E0040
:100DB0007C00180010000000F80070007E00700039
:100DC000F80000000000100018007C003E001C002D
:100DD0000A000100000022003E003E003E002A0002
:100DE00008000800000004000C001F003E001C006A
:100DF00028004000000000001F000E007E000E00D2
:100E00001F000000000000008000500038007C003F
:100E10003E001800080018003C005A001800180096
:100E2000180018003C000F0007000F001D00B8005C
:100E3000700020001000000004008200FF00FF008E
:100E4000820004000000100020007000B8001D00A7
:100E50000F0007000F003C001800180018001800D1
:100E60005A003C001800080004000E001D00B800E5
:100E7000F000E000F000000020004100FF00FF0053
:100E8000410020000000F000E000F000B8001D006C
:100E90000E000400080008000800080009000F0008
:100EA0000F001F001F0000004000200013000F0073
:100EB0000F001F001F000000000000000300FF00E3
:100EC0000F001F001F001000100010009000F00025
:100ED000F000F800F800000002000400C800F00074
:100EE000F000F800F800000000000000C000FF0063
:100EF000F000F800F8000000000000002400990055
:100F00005A00FF00000018003C007E007F007E00B9
:100F10003C00080008000000000018003C007E00B3
:100F20007E0056005E0018003D007F00FF00AD000F
:100F3000FF00AD00BF00E000470042007E0042001D
:100F40004700E000000022003E002A0008000800E0
:100F500049007F0041001C001C0008003E00080002
:100F600008001400220000001100D200FC00D20092
:100F7000110000000000000088004B003F004B0003
:100F800088000000000022001400080008003E0055
:100F900008001C001C003C007E00FF00DB00FF007E
:100FA00067007E003C003C0042008100A5008100FB
:100FB000990042003C00180024007E00FF005A0007
:100FC00024000000000000003C007E007E007E0047
:100FD0007E003C00000000003C0042004200420055
:100FE00042003C0000003C00420081008100810082
:100FF000810042003C0001000000000003000300EB
:101000003F007F003F00800080008000C000E300C0
:10101000FF00FF00FE000100010001000300C70007
:10102000FF00FF007F00800000000000C000C00043
:10103000FC00FE00FC00000000007F000400040033
:101040001F00070000000000000018007F00E00003
:10105000F800F8000000000000001800FE00070083
:101060001F001F00000000000000FE002000200004
:10107000F800E0000000000000000100430037001D
:10108000FF00FF00FF0040004000E000E200EC0035
:10109000FF00FE00FC0002000200070047003700CE
:1010A000FF007F003F00000000008000C200EC0055
:1010B000FF00FF00FF000000000000000000FF0034
:1010C000FF00FF00FF00FF00FF00FF00FF00000027
:1010D00000000000000000000000000000000F0001
:1010E0000F000F000F000F000F000F000F00000097
:1010F0000000000000000000000000000000F00000
:10110000F000F000F000F000F000F000F00000004F
:101110000000000000003C00660042004200660043
:101120007E0066003C003C00660042004200660013
:101130007E0066003C003C00660042004200660003
:101140007E0066003C003C006600420042006600F3
:101150007E0066003C003C006600420042006600E3
:101160007E0066003C003C006600420042006600D3
:101170007E0066003C003C006600420042006600C3
:101180007E0066003C003C006600420042006600B3
:101190007E0066003C003C006600420042006600A3
:1011A0007E0066003C003C00660042004200660093
:1011B0007E0066003C003C00660042004200660083
:1011C0007E0066003C003C00660042004200660073
:1011D0007E0066003C003C00660042004200660063
:1011E0007E0066003C003C00660042004200660053
:1011F0007E0066003C003C00660042004200660043
:101200007E0066003C003C00660042004200660032
:101210007E0066003C0000000000000000000000AE
:10122000000000000000080008000800080000009E
:1012300000000000000000000000000000000800A6
:10124000080008000800080008000800080008005E
:10125000080008000800000000000000F80000007E
:10126000000000000000080008000800F80000006E
:10127000000000000000000000000000F80008006E
:10128000080008000800080008000800F80008002E
:101290000800080008000000000000000F00000027
:1012A0000000000000000800080008000F00000017
:1012B0000000000000000000000000000F00080017
:1012C0000800080008000800080008000F000800D7
:1012D000080008000800000000000000FF000000F7
:1012E000000000000000080008000800FF000000E7
:1012F000000000000000000000000000FF000800E7
:10130000080008000800080008000800FF000800A6
:1013100008000800080068C40F36C4F832C492CA36
:1013200001C41FCA00C40C37C49033C405CB06C423
:1013300004CB07C42ACB0AC400CB0BC40DCB02C418
:1013400000CB03C445CB34C400CB35C4F0CB4CC474
:1013500002CB4DC40F36C4F832C20031C20135C1D0
:10136000009835C49137C45F333F06943032E4F6B9
:101370009C2BC40F36C4F832C20031C20135C501FE
:101380009CFCC2FEE5019C15C2FFE5019C0F31CA21
:101390000035CA0190BD90FEC4000190FBC4FF015E
:1013A00090FBCEFE37CEFF33CEFFC202E4249C1169
:1013B000C49237C41C333FCA02C400CA030102905E
:1013C00031E41B9C24C49237C41C33C40D35C410B3
:1013D00031C4503FC49137C45F333FC601CA03C60E
:1013E00001CA03C40001029009E4059815E41298AB
:1013F0001103C60133C60137069403C6023F409C61
:10140000FA3FC49137C45F333F01069442C20401DE
:10141000C601CA03C601CA03C1009835C501E42943
:101420009C2F40E4289822C40C37C4DC33C202024B
:10143000F20201C203F2030102F30001F30137409B
:1014400033C300CA02C301CA03C400010290A3C689
:1014500002C4500102909B90FEC60202C454CA0608
:10146000C601CA06C601CA06C60133C60137C6018F
:1014700001C601C6013FCEFECEFFC42BCEFF40CE3B
:10148000FF37CEFF33CEFFC400CEFFCEFFC10098A2
:10149000CAC501E42098F6C5FF02F450945AF476C8
:1014A0009456C40037C40233C43F3FC40037C4025B
:1014B00033C207D4FCE43C9C06C49237C41A33C23E
:1014C000073F06D4809C92C205E45C981B03C100D0
:1014D000988EE429988AC501E42098F1C1FFCA05D5
:1014E000E42F9CA9C45C90F6C40C37C4DA33C2FE66
:1014F000CB00C2FFCB0190D5C50103FC20D4C09C1A
:1015000029C49037C48B33C1FF3F06941AC1FF0230
:10151000F1FFD47E01C40C37C49133C380CEFFC722
:10152000FFC380CEFF9084409881C49137C4443378
:101530003F033F90FE2833313632372F5A292D4151
:101540002A313430005CF328432F3239332D5A2DA1
:1015500033323233292D3A333535292D3835332D71
:101560003731312D45004DE9412B412B3737392A91
:1015700032322F343634352D3936310042FC3A338D
:101580003334292B283A343835292B5A2F32333229
:1015900039292D452B323239382F5A000103343482
:1015A00034312D28412F33292F3338322D32343620
:1015B00033006CF633313839322B28353431313041
:1015C0002F36323738292B3A343234292D353334FB
:1015D00032002E6A35363930372F3A343336290007
:1015E0000800412B313331332B353334312F382A36
:1015F00036392B3A333233290049E6412F322A4516
:101600002F35003200283A3237292D3A323232292A
:101610002B33323936292B313336342F36333631AA
:101620002D333035350015F4285A2F31332D343011
:101630003233292F373831362D343237382B28338F
:10164000373432392F5A2B28412D353837372F412F
:1016500029292B36343530008F1C432B432D323152
:1016600037362D333339312F3A31333429000400E2
:10167000323036332B343939332F32323938000394
:101680000032373134322F383739322B3237362F58
:1016900037340003003A333237292D3A33313929B0
:1016A0002B452B353632382D3136313700164B3637
:1016B0003237322A332B33373434002058283A312A
:1016C0003736292B323833392B3434342F43292AF7
:1016D0003A313533292F353900170035363338354F
:1016E0002B333136382F3A343439292D3A343629D0
:1016F0000003FF3A3639292F3234352D452D5A0053
:1017000094FF5A2B452D313839360007F9283A30E5
:10171000292F35363632292D5A2D432D3131373286
:10172000002BF75A2A3237392B5A2A322D343630C9
:101730003000F88432363437332D3230392B5A2B7F
:1017400036303100366936333939352D353239384E
:101750002D31333038002DE03A343130292A322B04
:10176000353334372D28323030342A31342F383560
:1017700031292D3434343400697131353439352D03
:10178000333239302B5A00F22F5A2D412D3439344F
:101790003400E8EC3A343639292B323132342F31E7
:1017A000333430322B313430392D35393739002943
:1017B000EE2828283236312F37352B452A31313360
:1017C00038292D323035372F373630382B313136F6
:1017D00032292B313737372B34363432292D3632F4
:1017E00030322F373100130032383530382B363253
:1017F00031352D412F282836303532372D41292FCC
:101800003A3437292D452B28452F3829292B3A31B1
:101810003637290029022833303138342D36333118
:1018200030292D3737332D343233382D333339388F
:101830002F3134382B5A00AD0033343634342B3545
:101840003737342D2834393037382B313236362F6C
:101850003132303838292B4100EB9D3A313532296D
:101860002D343639352B39333000DAF5323038360D
:10187000352F3A343534292A3339383000485D2839
:1018800034323437312F31313439342D5A292B3A0F
:10189000323532292D412D3438392D313337382D19
:1018A00036303736006EE15A2B323131372D432F27
:1018B0003333342A383130352B283A313837292F11
:1018C00031303236362900FE5E3A3630292A322A45
:1018D000332B3A31303029005AAE31373537372A79
:1018E000322D323834322F432F3400070028282875
:1018F000283A333135292F31363730322D313835CA
:1019000035292D452D452B2833343636302B3334AD
:1019100039352F31313737312B3236313329292BB5
:101920003A333232292B43292A31322B41292F31A4
:10193000323731320004005A2B412F362D353230E8
:10194000372F31303538392A3A3234392900D42109
:10195000283A313432292F313736392D3633323463
:10196000292B452D3A313638292F3135363337007A
:101970000300452A3236362F5A2A3139382F31346E
:1019800034300016003A3735292D313734322F35AF
:101990003235372B3433392B363035310066193A2E
:1019A000333739292D313638372F323930382D5ADF
:1019B00000D0FF33303739372D343138382B283ABF
:1019C000333130292F452F33292B3531303300E582
:1019D0007B36333633342B432D432B3736362D317C
:1019E0003632340038F53A313234292B3431343040
:1019F0002D432B37363500E811452D343134392B42
:101A0000452D5A2D343738350029DD3A32393829F9
:101A10002D3231392D282836303433362D363137B2
:101A2000392B373031292F383338332B43292D3197
:101A30003034390004C528283A323130292D353860
:101A40003535292D35323033292D3838332B32387E
:101A500039312F283A333035292F31343330372973
:101A6000007C4935373336312F3133392F412D3909
:101A700038342B3330320075FD31303631352B326E
:101A80003931322A3300859E283A313038292F28BF
:101A90003A333130292F412B28412B333932372D1E
:101AA000432F4129292D45292B363139372F343100
:101AB000392F3300050035313631372D2833363391
:101AC00030362F2832393030332D283335353832FF
:101AD0002F452D363032372F3134353531292F32DD
:101AE000353034292F353439292B283433383534DF
:101AF0002B5A2F283A313439292D313234332B34B3
:101B0000313831292900A7C95A2F28333938312BC8
:101B1000363038392B28283A313130292D333638B0
:101B2000342D3A34313129292F33373530292F31AB
:101B3000343532292D323638320091F5432B5A2B69
:101B400028353638362B313532302F3939292D3A70
:101B5000323231292F3135332B43000B04333637E2
:101B600034312F333430382A353538382B35353940
:101B7000370025F0283A323334292A31302D412BD1
:101B8000333135352900EE8B31383637382D363044
:101B900035342B3533393400624635323239382FFB
:101BA000323533382B2832393836382F38343831FB
:101BB0002B34333032292B3732342D32353638003E
:101BC000B10934303135332F3436382A37313600C5
:101BD000BCED32313231382B323838352D3339378C
:101BE000302B323938392B363032352D3100DA711D
:101BF00032393435362B313739332F3238393200D8
:101C00000A003A343335292F323735362D28283516
:101C1000383332362F28283A3438292B33323935A5
:101C20002A32292F3A313236292F35292D343938A5
:101C3000342B5A292D343636342B28313732333071
:101C40002D432F3134373929290070EC5A2A323686
:101C5000392B3635343600136232303437392D3172
:101C60003434322D282828452B283A323136292A77
:101C7000322F32393737292F3132292D3A31323448
:101C8000292F41292D343530372B34393034292D43
:101C900031323800D53428323838302A283A3130B9
:101CA00030292A3134322F3A3134382929292F3832
:101CB0003232300005003A323034292A31342A36A3
:101CC0002D5A2D34373834000B953A323132292DC4
:101CD0003635372D323731372D3836352B323031D6
:101CE000392D282834323831342D3A3730292D45D2
:101CF000292F373336372B43290082B72835323521
:101D000030322F3130373833292A373333312D36BB
:101D10003238392D3A3838290009583238313433BD
:101D20002D452D3130343300B2695A2D33333639D5
:101D30002F31383337352B5A004800333535343797
:101D40002F353334302A3A313936292D28412F3274
:101D500029007A1334393336332B412B3132353263
:101D60002D3533353200DCB032383638372F3A343F
:101D70003937292B353838352F3833330007003AB7
:101D8000313130292F412D3A313430292D28353544
:101D90003039322F31313438312B35353430292B2D
:101DA000452D32363236007AD52828323537363945
:101DB0002F373133382D33303735292B5A2D5A2BC5
:101DC00035393532292B3A343537292A412B3437E6
:101DD00030302B28343033362F3A32323229290032
:101DE00098AE33383637362F283A3734292A322FEF
:101DF00037343137292A3200B8643A353035292D45
:101E0000343232352F3133353031000300452F382D
:101E10002B363030362D2836343636342B353633A3
:101E2000312D313337352F3131323729007817359D
:101E300030352A3130382B3530353200C8E8282883
:101E40005A2B323438312A392F37343532292B3650
:101E50003439362B35333233292B452A322F34325D
:101E6000343300050032323435382F313838362AD1
:101E7000343137322F45004404393139362D333867
:101E800033312D2831333438362D343839372D3528
:101E90003933362900980A33313431352F432A310A
:101EA0003738372D2835393138382F3135323839F0
:101EB0002B313930302D5A292D2832373730392BF4
:101EC000323235362F283A343232292F5A2F3231D6
:101ED000292900CFC628452B333030382F333638E8
:101EE0002D2833303836302B432F4529292B3A32D1
:101EF0003837292D2831313739302A283A383829CE
:101F00002B3A333434292D432F313231292F4129B3
:101F10002B39333000D5F9412F28283A323338296C
:101F20002F323337342B36333639292D3332383686
:101F30002F43292A5A2F38352A2833323337362B64
:101F4000343936302F412F313538292A3434320094
:101F50003C5D383839302F313431352B353435311B
:101F60002D3438363000550234333039372F5A2D5E
:101F700043006BFE452F31332A283A333839292F55
:101F8000323230322A41292D323930382F432F381E
:101F9000000700283A313331292B3331312F283AC9
:101FA000323339292A32392F32303534292F432917
:101FB0002A333135322A322B28452A313131352F17
:101FC0003134313033292F3132303636000300318D
:101FD000313439382A342F373232302A39333338D2
:101FE0002D313537362B3330373300B5E0343439C3
:101FF00035312F373339322B3231363100770828DB
:1020000032343535302B3136372B412D333038379C
:10201000292F283A323330292F393938292A412DAE
:10202000343831392B34393233005816412A5A2D7D
:10203000333230362D33323134006DEA28412A36BE
:10204000302F3235332B2832343739302F283A317C
:102050003936292B432D452F41292A3A3133392945
:102060002F4329292F382B412D31373136005DF987
:10207000283A313238292A322F32343831292D3357
:102080003633322F3A3436292D2828363535323337
:102090002D28452F3132292F2834313734332B4125
:1020A0002F3A31343029292D41292F31363833291F
:1020B0002A32373100C5F8313038302B412D412BD1
:1020C0002836323934362F452B285A2D35333731BF
:1020D0002F3136393934292900150A3A3231362957
:1020E0002B333339302F2834383439302F3A3233C8
:1020F00034292F32292F452D343531312B343935C0
:102100003400F40133373930302D3A343937292B44
:10211000452D3537363600EB7B353435382B3434A6
:1021200033372F5A008F00412A323031302D33346B
:1021300031332B432D5A007D5C31343133332D3113
:102140003831372B343739302D3536363000B62C10
:10215000452F342B31393600CE003A333834292A12
:102160003132342F5A2D363131322F313334363724
:10217000000400432D353938362B452B3A3432359F
:102180002900C1FD3A313739292D323432362D3309
:10219000383933006A2733333838342B3A32313404
:1021A000292D2828432D313037322D353831342927
:1021B0002F36353038292F323439352A33313334FC
:1021C0000064AB34303530362B353736362B34356A
:1021D00038332F33373639000D0036323231342F51
:1021E000323931372F360003002834373236332F57
:1021F000323039312F342A34353537292F323731BF
:102200002D452D432F323035383500030035363714
:1022100036362B3534313900E9F231303439332F49
:102220003238382B3234363600C609283A33333048
:10223000292B353436372D32373530292F32323588
:10224000332B333035392A3400E82F3A33393629E5
:102250002D3132332D28282836333633342F283287
:10226000363930352D353634322D343130302F413A
:10227000292A452B36313939292D313639352A3637
:10228000292D343831382F33333038292B3A34372D
:1022900029003CD5412B353037312B313639372F9A
:1022A000323139001E0034313839332B3334332B7B
:1022B0002832313930332B363430332D3331323408
:1022C0002F33373234292F4500ED033A343537297F
:1022D0002D412F283A3131292D313430322F3A32E5
:1022E000303929292A4300191436323737332F3130
:1022F000303538322D353134372B4100F7EB3A3851
:1023000034292B353837372B353539302F3833389A
:10231000322B353838392F2828285A2B412B35377E
:102320003137292B2834363439332D432F31323687
:1023300037392A41292B2833363039302B432F3671
:1023400034373629292B452F3130383829009A0463
:10235000353731382B323435312D34323530004F6A
:102360000F3A313535292D452F31353037340003BB
:10237000002834383431392D34383536292B32336E
:1023800030322D2832353334332F3634302A412938
:102390002D3932302F3730303200060034313037AB
:1023A000342D353536342F2836333932322B313609
:1023B00033352F342900BE1B31383738302D452AAC
:1023C000322B5A2B3A3438332900B893313532390D
:1023D000352F323935312A2832343639322F5A2FB7
:1023E000363329001900412F322D412B3A31363630
:1023F000292B2828333431362A412B313736352DD5
:102400002833363232392F3A323735292F313029B5
:10241000292F5A292B2832303332362F28333132A4
:10242000332A31342B432F39313730292A352F3491
:1024300039333029009C1B2828363033342A33297D
:102440002B353837322F33333433292D3438303964
:102450002F333634332A323133352B35323730008F
:10246000069A31323039322D363234302D3335350B
:102470003200FC085A2F412D3230393200D9F7365C
:10248000343537332D3331383800C9EF32343132F7
:10249000302D353033362D32343432000241283A73
:1024A000333233292F3339312D412D28323833320D
:1024B000342B28432B343638312D41292F353838E9
:1024C0003729292D452D333433392D2831363631EE
:1024D000352F33323237290053F233373437392B23
:1024E0003734382D410046953A353032292A322D7D
:1024F000323638332B3530313700566B3633313680
:10250000372D452D313437392B3A3231312900926C
:10251000F72831383638332D412D333932372B3ABD
:1025200033303729292F412B333834342A32005A9B
:1025300027283A313735292D3435382D3136343086
:102540002B36323838292B3A313030292F33343377
:10255000322D2828412D343434382F313234383557
:10256000292A432D333833372900EEFE2828323309
:102570003436312D323833342A32292F432A282851
:102580005A2B3435352D35313436292B283A343908
:1025900033292F333836342B36303436292F323422
:1025A0003929292F332A32353800844235383033DF
:1025B000352B412F412D35393537002CFA28412A4A
:1025C000323934362B31373630292B353332322FEE
:1025D00038323236000500412D3932320073FC3A70
:1025E0003539292B452A33003A7736323231312FAB
:1025F0002834323031382D313438342F28313130CD
:1026000039302D5A2F3739382B3A34353429292986
:10261000004014452A3932332B34353431002BA98C
:102620003A343330292D2835313339312D35303195
:10263000302D3A333635292F3132323533292B3488
:1026400030373700EF4628313339362F33373329C7
:102650002D323737352D412D323231352B34363945
:102660003000CAFE31363537312D343439302F320F
:102670003233322B28283A323937292F3639383637
:102680002D41292B412A45292B333037005E023A50
:10269000333132292F452F32000500452A31323699
:1026A000392B28313635392F34372F39290035D099
:1026B0003A353037292D35372B452F432B5A0068B3
:1026C000002831323037322F3A323032292B33372B
:1026D00031332B35383831292B343230302A332BF3
:1026E0003439333200A4B5432D5A2B343234372BCE
:1026F0005A009C143A343636292B283A313136297F
:102700002F343731372900F9E431313232352B316A
:102710003930342A320092663A313732292F430059
:1027200024003A333137292B3533302F34323432C9
:102730002F3300040036303937322F3A3839292AFE
:102740003A323532292B3233303700D76E323033BC
:1027500035372B353339332F2832393830392F4339
:102760002A41290046003A313537292B3133353398
:102770002B5A00520628343032312B432A34292D6B
:10278000452D3132323500F5493A343630292B3671
:102790003239302B452F282834323433372D5A2FF5
:1027A000393739322D2836323936302F31353538F0
:1027B0002A5A29292D323539382B343436392F37D6
:1027C00033333629002F0332353939392F33353534
:1027D000382B5A004C0036353331392D3A343432E7
:1027E000292B383231009B00323936323400B8732D
:1027F0002835323936332B432D33353930292B3AAE
:10280000323339292B363534392B450062E03A35DD
:102810003033292F31382D323538382B3232383099
:102820002F3231303330000300283A323039292A30
:10283000332A38292F3A323336292B3138353900AB
:1028400046072831373732302F432B41292A412A76
:102850003131352D450008AF35323530302F323328
:10286000312B2831393732392D353032332F432B44
:1028700035363431292F5A0055002832353331315D
:102880002F333532322A373530332B41292B313330
:1028900035362B4500ACD2412F322B412F3400046A
:1028A0000031303834352A352B3530382D2828354D
:1028B000333032342B283A313936292D32363838F4
:1028C0002B353739352D5A29292F313238303229D5
:1028D00000C9D532373938312B34323100F26E35F8
:1028E000303638342F2828432D353637322F3134BF
:1028F0003535312B393931292B452B3A3837292DAC
:1029000045292D323139382F31343135312A33349C
:10291000302B3236383600CE0F34323435362B3445
:102920003334352D412F31363931001B00283431F5
:102930003135322B33373034292B3432313900B32F
:10294000BF3432383432005AA732343232342F3A5C
:102950003531292B412D393232008CFC3230313661
:10296000382B412F36372B343832312B283537303E
:1029700031302F285A2F31362B32393939292F331C
:10298000292B3A3138322900CC1C28363039342BE7
:10299000432D283A343538292D3A313231292F3117
:1029A0003133353929292A382D3334363300E9D0EB
:1029B00034303232352D2835383630362F452F31E8
:1029C0003330292F33393436000A00353234393365
:1029D0002B430012D128412F33292B3A32292D3194
:1029E0003939302B333231382A333400A0E72832DA
:1029F000383937302B343635392F34303036292AB0
:102A0000313434342A332F31383837001200452D11
:102A1000323234342D313635332B343133330016E2
:102A20000128432A32362D33313631292F353832B9
:102A3000352B313036390031045A2A3A34343229B0
:102A40002F3A333730292B353934302B4500A21734
:102A500033313131392D5A2F3732313000040032C1
:102A6000353434372F36373837000300452D452BA2
:102A7000333631372A38000871373533312F432A3E
:102A8000373134352D5A001AC33A3333292D3A33AE
:102A90003133292F2834363932382B3533392F2822
:102AA0003A333531292F363336312B343033312F09
:102AB0003337352929000A0036333637302F31387D
:102AC0003232382D3931392F282836333738322DE4
:102AD0003734382B34333433292B3335392D4129CE
:102AE000001D0033353935332D313530302D313837
:102AF000343000657F333135342A31322F3733306B
:102B000031000500432B333431372F28353733322A
:102B1000362D28282834313731382B3230373429B4
:102B20002F43292B313531342D343036292B432F87
:102B30003A33353929292B3135352F41003C003ABC
:102B40003437292A28283A323737292F5A2F285A3A
:102B50002B452A3333342F3939383729292F31344B
:102B60002D432F38393633292D2832373637372F32
:102B700034333232292B373831004E0F3336313966
:102B80003500638D35363135372D3A333338292FBB
:102B90003A333339292B353536382B3236322F3A02
:102BA00031343629001D00452F39000400343938EE
:102BB00035342D2833373339342B333331302B31FF
:102BC0003034322F43292D35373535001BAC39359C
:102BD000372A35302D3A333730292B323338390004
:102BE00079C25A2B323238322A32342F4100F41053
:102BF000412D333636362F452A4100CD4A3A3336F9
:102C000035292D333636332F383138330007003A23
:102C1000313732292B33302D333438005292412F43
:102C20003300040031373736312F343934302A320B
:102C30003935372F323234310003003138303737ED
:102C40002B412A2834313038302B5A2F313230364C
:102C5000372900FED32828452B323832362B36331D
:102C60003833292F3639382F332B283A3138312948
:102C70002D323437352B3530393329292D36333140
:102C8000342D5A2B3530303200680B3A3131372928
:102C90002B2833313038322B323437352D3333351E
:102CA000352F33373736292F38393639000400337A
:102CB000313038382B45009A7933353938362F3151
:102CC000313434372D343433372F283A31313529E4
:102CD0002F373530352900AB3B393733342B31367C
:102CE00033302B36333433002B4536313235352DE6
:102CF000343830362D28432D3133322F4529006C9E
:102D0000DC323734332A412D432B43004B8B432B8A
:102D1000313232372A31392B3A333039292B285A7C
:102D20002B333634392B2835373437342F28284184
:102D30002B323830342F5A2F33292A432F31303059
:102D400031292F452F4129292B313834380028C00B
:102D50003A3639292A35332D363436392B5A2D4116
:102D600000F385282828452A3437332B3338363961
:102D70002F323736292B333733392D323234332A39
:102D800034292A2831373333302F35303931292F40
:102D9000343130392A5A292F31352A323536382BF9
:102DA000313033352F353835392B31323734000255
:102DB0000528452D412D333031342D3A3133392911
:102DC000292D282832333332362F452F28283A34FC
:102DD0003932292F31323634342D31333235292BE3
:102DE000323234362F4529292F322B3A31363629C3
:102DF000292F31323035310004003A333430292F55
:102E0000452D343537342B383234006FF1432B35B0
:102E10003932342B323830362F452A28343932357E
:102E2000322B3131372F432F3529002808313731E4
:102E300032332B5A2D41001B43285A2F3133292B73
:102E4000283A313138292F32353532292B5A2B285F
:102E5000412D5A2B35323034292A3200F2283436AB
:102E600034332A332D4300643228393431322B3540
:102E70003633302B36332B33363636292F3333392E
:102E8000342B45002F00285A2B432D323831312B5B
:102E90002836323138352B452B323731372F3939F7
:102EA000363829292B323930352F283A3433362910
:102EB0002F39322D323739322F283A313233292BFC
:102EC000452D432D45292900EF0035333438332B68
:102ED000323631362D343539300035C93530383059
:102EE0002D343038352F31382D5A2D283A33383299
:102EF000292A283A3335292B432F323239292F31C9
:102F0000373039342B283A333336292F313532399B
:102F1000392B3231393529290059F72832303237E7
:102F2000392B5A2B45292F43001300283A333231CD
:102F3000292B333938302F313930292B313336367C
:102F40002F3338342B282831393339302D35363862
:102F5000332B3A343734292F33303037292A3A3457
:102F6000343029292D35373900C00732343638300E
:102F70002F432B313030390008043A323037292BB7
:102F80003232322F412B2831363136382B28323429
:102F90003235352B2835333732312D343638312F11
:102FA00031373237292F45292F4129005F16313714
:102FB0003935312F3A3838292F2832393039352FE1
:102FC00032373933290003003A333232292D412F69
:102FD0003635372A31323539332B3A313337292BCD
:102FE0003235343300B1D12831333734312A332FDD
:102FF0003132373335292D5A00BEFF3A3137322965
:103000002B323538382B3631373700CDB5323332A5
:1030100031362F452B3330372F313332000600281D
:1030200036303534372B323831302F31393731386B
:10303000292D3337342D333839350056EF323538B2
:1030400038342F313939392F330004005A2F332BBC
:10305000283A333933292F3836393329001D0032C5
:10306000393839332D3A343138292F363131342B30
:1030700034323338009210393333312A332B283A23
:10308000323034292B323130372F3133382A39332B
:103090002900E3733A333931292D452D5A2F373121
:1030A000373800050031393436352A322B31323287
:1030B0002D3833332D3631363600357D33303533C8
:1030C000362F3A323230292B313638302D353230E6
:1030D000330055F234353030362B412F432A373305
:1030E0003200F47A31373630302D343333322F3AE0
:1030F000343534290004002834313034322B32394D
:1031000039362B333138322F2836333433352B349C
:103110003434372F37363729292F452A3133352B89
:1031200031353535004DCB28432F3239332D3439E5
:103130003936292F31323230352A283A3438352978
:103140002B333734372F333936292D313738382D53
:103150003A33373029005EF733393032392F313185
:103160003733312B28452F372A432F4329000900B5
:1031700031393731332A322B3A322900029C31312E
:103180003937382D2835303330372F313633302B1F
:10319000283A3537292B32353639292F353330291E
:1031A0002F28282834393332312D32383834292B1E
:1031B00032363134292B343439392F3134343936DD
:1031C000292B3A323235290051103A37362900314D
:1031D000C13A343631292F283A3737292D452F392E
:1031E000303838292A322B3431342F3432353500F7
:1031F00004002831353539312F32393934292B281B
:1032000036353436352F333639312B33353635298B
:103210002A31320024A828432B333133322A313269
:10322000292B3132313600CCC73A3735292A28319B
:10323000323138382F32363737292A362F35383061
:103240002A373937372D33373537009BEA3A333150
:1032500031292B323732352A382B36343730007E3D
:103260007C432B323535382D3A3333382900410A27
:103270003A3933292F3132312A3132383234004849
:10328000963A333531292B452F3A31323429005CB7
:10329000003A323632292D343534312F313135363A
:1032A0002B353638310059163A343536292A282834
:1032B0002836313338372F3130333230292A3634FB
:1032C000302D35393337292B323538332F313330E0
:1032D0003331292B3233353700C1FE36333535379C
:1032E0002F31383538322A3A333534292B5A0042B7
:1032F00015452A412B343530322B313534392B36B4
:10330000373000631C3A323639292D5A2B34393381
:10331000340002D532353137302B45007C62452BE5
:10332000363530322B333435342B323930352B357A
:103330003430372F3A3236372900090033363236E7
:10334000362F353330362B452F31342A43000F0CBE
:103350002835363139362B3833362D282832363752
:1033600031322F363936372A33323837292A342F3B
:10337000333433332F3229292D353034312F313145
:103380003538372D323430382F333430312A363314
:103390003200702C432F3236002700282835343075
:1033A00033392F31343038322B28283536353831FF
:1033B0002D3A333038292D34323733292F5A292AE0
:1033C0003834292F31363332312A452A31313529E3
:1033D0002F343031360003002835313637372D434E
:1033E000292D5A2D5A2F31333432372A313034387F
:1033F0003000D07A3636372F3231332B35343037F0
:103400002A3300663F5A2D363532342B283A34346D
:1034100032292A5A2F3130323338292F3433393870
:103420002D4500E3FF3A343339292D3A3338342916
:103430002D3A3531292B432B363239370058D936BE
:103440003634332B3A3732292D3333313700C00D20
:103450002832323634382F412A31332D3432363146
:10346000292A322F3130363333000300283A3435DD
:1034700029292F450099043A323836292D33353918
:10348000310095F62831333235352D3A333635292A
:103490002D45292D343837392F323532352D3432F8
:1034A0003437006CEF283A343438292F3134372937
:1034B0002B323538322D3A323836292F3334340016
:1034C0000400432F3138342A3130373830008CD261
:1034D0002836343936352F31383434372D41292BBD
:1034E000363131382B353037322B3634373300F51F
:1034F0004435313039302F2831313830382B3A3299
:10350000343729292B333937372B4300911333357F
:103510003236382F313031382D3A343438292F3182
:10352000363833352A282834353335362F3131377C
:1035300031392D5A292F363932362B3A3332312947
:103540002D4129003A055A2B412F382D283A313484
:1035500033292B5A2F31343439292D323737330060
:1035600008F532343730312B5A2B363337352B436D
:103570002F5A2A333300123C2835353434382D4342
:103580002B5A292D3A3937292B3A313132292F2814
:1035900028285A2F31382B282835313233352B3112
:1035A000393237292F3739343829292B33383535F3
:1035B0002A332A34292F452B33353033292B343302
:1035C00037390026112828282832323133322D414C
:1035D000292F432D432D35343437292F33373639AE
:1035E000292D452D5A2F3133373135292B32373399
:1035F0003700B50A33363130382F45005B03363497
:103600003138302B323035332B343532312D3134A3
:1036100032372F383834000400283A323630292F18
:1036200039323231292A452A323900CA17452A311E
:1036300039362B452B3131393000F82434353738C1
:10364000392F333738322A333731362D283532384F
:1036500033362B3736312F31323938332B283A3144
:103660003434292F5A2B353038372D36322929005A
:10367000DE9635313036312B5A00BAC73235313704
:10368000352D28283A323535292A372B5A292D4508
:103690002F33323031292F432F3500040032353794
:1036A00039352F333731352B3634393600661931F9
:1036B000393037372B333934362D343233380061D3
:1036C0004932373733312B2831303038312B3539C7
:1036D00030312B353231362F36333633292B3532D4
:1036E00033342D45009E803A313338292D3236341B
:1036F000312F3830302D343436342B2834333932AE
:10370000362D452B363037362F323136392900B732
:10371000EE3136302B313636332A28452F28283AD9
:103720003735292F2835363432352B3431372F3180
:1037300034363431292F3136292D333733352F3173
:103740003934313829292D452D2831333339382D55
:10375000313732382F3232333529008363363037F0
:1037600034312D5A0000ED34383935342B323133B1
:10377000392D31353737006CC134313131392F288B
:1037800028283A333036292F3134343537292D3231
:103790003038392B31323536292D3A3437292B350B
:1037A000383233292A2836303135342F36323439FD
:1037B0002B36333139290078DE3A323834292F4517
:1037C0002B3A313736292A34302F4300270035343D
:1037D0003335332B343834372D33333500F1E53579
:1037E000353038362B3537343600A0ED5A2A33368B
:1037F000302B343639372D3131383400C16E2843FF
:103800002B2828373835312B333039362A342D32AE
:10381000323334292F363736302A41292F3332318B
:10382000292B5A2B43004D0435383039332B3A3489
:103830003534292B313531320099F5313331382F78
:1038400028432B3531332A283A333932292D35375D
:1038500034332F34333138292F28353833362F314C
:103860003236322A2832313632322B3A3239332943
:103870002D343439312F34313035292B3434362935
:10388000292F370005003A343737292B32383136A3
:103890002B432B3836322F37333432000300283293
:1038A000343735362D33333333292A322F43002929
:1038B000002834353238312B353432392D32363018
:1038C00031292D5A00A8BB2828323538312B5A2AE5
:1038D00031342B35353231292F333137322A3233D7
:1038E0003833292F432F332D283A333638292F37B1
:1038F0003932382B3437393229004CED35353638EA
:10390000322B28313339362B452D45292F3A333880
:1039100032290004003A323231292F342F32001973
:10392000003A3432292F31353732322B31343134A9
:103930002A33312B3436323500A8BD363134323398
:103940002F28432D432B33373339292D3431383148
:103950002F3236302B3536313200D81636353239E3
:10396000362F412D36323536002EFB3A3339312988
:103970002F363336372A283A333534292A32362F30
:10398000323039392B45292D3A3233392900BFFFDE
:103990003A333135292F3834312A3236332F432DFB
:1039A000363334350049E73A323636292D34353648
:1039B000372B353534322B283A323531292F432AEB
:1039C000313733382F35343138292A3130000E2E33
:1039D00033383031382B363339362D353237312DB7
:1039E00032353233000C8F3A323130292D4500A464
:1039F000FF2828343535372B353332352A33292FF4
:103A000035373938292A3A313635292D5A008F0869
:103A100032323831372B313830322B36353000B531
:103A20006232353236382F363835342D3139343824
:103A30002B353034005FFA5A2D36302B3332363284
:103A40002F28283A323137292F313530372D383465
:103A5000392B41292D333433302D5A2F323038371A
:103A6000292B3133323800A005282831353235373B
:103A70002F452D3935322D5A292D313730372F31F9
:103A8000323132292F31302B2832343831302F3433
:103A90003739382A2832383437312F333432342901
:103AA0002B5A290072005A2A2828283237383230F7
:103AB0002D353535332F5A292F3436292B432F39BD
:103AC000312F32292A36382D343934392D3A3530D0
:103AD000332900864733363530332D353934392F85
:103AE000452F2831363937332F333735352B2833A7
:103AF000333137372B432F36323834292B2832379E
:103B00003138392F452F36312B5A29292B36313868
:103B1000342B34363534005E2A32383338392D3A76
:103B2000333735292D313136342B3A3238392900A3
:103B3000585E3A313930292B3931372D313933300C
:103B40002F3433303200030036313939372F412AD0
:103B500031322F363030322B3138323300280733B0
:103B6000353139392F333436332D28452A28283634
:103B700039362F5A2A5A292D3A333033292D3530E8
:103B800031352F3A33363729292A31362F5A290031
:103B9000EDFF412B2834303038352F333538312B79
:103BA0003A32323229292B3A333236292D28283518
:103BB000373439342D3531312B33363139292D36DF
:103BC0003233332D353937372F3135303238292BD1
:103BD00035323336000C192833323234312B31353B
:103BE0003534292D2831353337392F323932352BB9
:103BF000323639372F2831343334362F333936388B
:103C00002B283A343136292B432F35332929292DB6
:103C100033323136006A7731343432322F3436352C
:103C2000362A3A333231292F3432382A3539313273
:103C3000004845412A2832313936392D3531302F67
:103C400033323331292D3236393900C3F528283A39
:103C5000343834292D412B41292D323931392D5A0F
:103C60002F3136313439292A31373837352B313035
:103C700033332F31363834302B3435333300B811E9
:103C8000452F382B3137373800F706393638382D7D
:103C90003331312B3237383400812F3A33292F41D9
:103CA0002A32332B5A2B285A2D5A2B3434393029A7
:103CB00000EC8231323637362D283A313933292A11
:103CC000362F3A32343229292F333230322D3635DD
:103CD00031330092E6283A323629292F412F3132EA
:103CE00037332A32313239392D35393332006DE2EA
:103CF0003A343037292A5A2B283A323436292B3491
:103D00003038312F31383438292A332B3A33373091
:103D1000290009A634373431350037B9282828332B
:103D200035313638292D33393338292B283435337A
:103D300037372D3731342F3A34333629292B313464
:103D40003735292B363239322F313237372D34354A
:103D500031300080EE3A313333292F5A2B36343448
:103D6000352F3232383900030031353438382F34AA
:103D70003737312D2832323032382F363237372923
:103D80002B283A323532292B333732302F35383021
:103D9000292B333334332F3435380007002831379B
:103DA0003731342D3930322D34363736292D3430F1
:103DB000382D3439303900A31A3A333430292A33B4
:103DC000372D2832313836302F28412B35353339CD
:103DD0002F31323536292B45292F412D35393431B4
:103DE000005DF12832313535302D323233332A320D
:103DF0002B43292F432A313031382F363237302A9E
:103E0000313034303900F6F33A343934292B323139
:103E100036362F3A313234292D36313837001EE804
:103E2000323739312B3838332F3131342A38313267
:103E30002B3634353700B97E36313133342F432AAF
:103E4000283A343737292D313339312F3434383744
:103E5000292A35312A332D3437363800AF9D34378F
:103E60003338392B343733392D283A313036292D30
:103E7000432F313236303729009DCB313430353144
:103E80002F333636332A5A2A362B3A333834292FF1
:103E90004500220035313135312B31343337006C58
:103EA000CD28283A343436292B323839312D34375D
:103EB00038322F283A323533292F383831312929F1
:103EC0002B343535372F45292D3A313635292D32CA
:103ED0003032382F393035392D31313739006BFBDD
:103EE0003A313733292F323032352D333732342DB2
:103EF000343732350006DF3A323830292B36393044
:103F00002D343631302D353131340046C63137311C
:103F100034392A322F2836343331362B3A33323182
:103F2000292F3130343530292D3936352B4500B91C
:103F3000123A343536292B3132392D3731322F2888
:103F40003A313030292D3833332B343139292B365F
:103F50003530332D33323236001A0E5A2A3837397B
:103F60002D333033362D43000ADD28452A383736C5
:103F70002D373230292B4500128D283637372F3117
:103F800032342D5A292F432B3138362F5A2A3636C0
:103F900038312F31333533000E0034353535342D7B
:103FA0003A343338292F28393134392F28363232F0
:103FB00032332F3130383634292F343734292A32EE
:103FC000004A753A343236292B3A313132292D33B1
:103FD0003730342D430017EF2832313737342B3246
:103FE0003435372F34363639292A432B3A3138398C
:103FF0002900E61534323830352B313032382B5A1F
:10400000007EAB5A2A3430372B3632303400EF85FD
:1040100034313937342D5A2F343533382B3A343044
:10402000382900CF013A333831292B323135332B3F
:104030003538352B3132383200EBDD28313036312E
:10404000342D432D3A313236292A33292D28282878
:1040500036353432302F452A3239292D5A292F311D
:1040600031393732292F373835312B410010003A9A
:10407000343137292B323236332B3432303100D8B9
:10408000FE452B343338342A372F373432312D3430
:1040900036363600CAED28412A343637342B3334CD
:1040A0003830292B323036322A32342F432F2843EE
:1040B0002D3A323839292B432F3432372900040066
:1040C0002831323434372F323034332D32333737CE
:1040D0002D43292D3A3139372900BCD928383633B8
:1040E000302A362D353439322D33363635292B45A5
:1040F0002B313435362B28412D3833302F3A31319E
:104100003929292D412F2834343033392D3336388D
:10411000362F5A29004B003A313934292B333338A2
:10412000392F3637353100080033313933322B39E6
:1041300037302F393530302A3A3137332900BDBD79
:104140002835323235352B35353132292B34343759
:10415000382F31333930302A36353800480A3A3171
:104160003337292D2832323635362F313637312B39
:1041700043292B313439392F45001D00353738326A
:10418000392B313931332B38383000CEEC28283AEE
:10419000313831292F452B412D41292A28432B34F1
:1041A0003933322D313639352F3936292A31362FE8
:1041B00033323732292B363239352D36323236000A
:1041C0004D00412F332B353732332B343235322DDE
:1041D0004500D1262828393634342F3731322B3454
:1041E000373931292B28412F332B5A292A41292F9E
:1041F0003A323537292A3A3431382900E40234304A
:1042000032322B2828412D452D2835333839392B8A
:10421000363435332F32313929292B343233312F8B
:10422000363731292D3A3234342900120E333732E1
:1042300032332F323331372A333236340000CC5AFE
:104240002F31362A3A313438292F323732330006AB
:10425000003A3439292B412F3732393300060031E7
:10426000393533352A322B343535300064AA3436AB
:104270003738392B353837362B353236372F430020
:10428000380031313737372A322B3235343300F1A9
:1042900065452B313939312D313531312F353200EA
:1042A0000A00363531372D5A2F31383535000300A5
:1042B0003A36292F31333635322B37303100C102AF
:1042C000283A323038292F3A343731292D373634CD
:1042D000292B343138322A332B3534372F333333CB
:1042E00033000300323433353200205F3A36382948
:1042F0002B283A323239292D313734342F3339379C
:1043000032292D452F3637383600070031313837FE
:10431000302F412D5A2A285A2F28452F3629292A4D
:10432000332F5A004A0134303137372D3632343585
:104330002B323439352F383535312A383835342B4E
:104340002835393634382B343735352B3534353735
:104350002D313238392900339635303331392F3AFF
:10436000323535292A313838332F333430312D3432
:104370003234300073EF35323433352F3A3139333C
:10438000292F382B3333383800400D283A32323752
:10439000292A31312F31313338292A3437392B3515
:1043A000383800C8093A3336292F31353638352A9E
:1043B00028452F332A45292B5A2A32350001B33498
:1043C000343232302D3335392B412B353538322DBF
:1043D000323637322F3A3338290005003A3132333A
:1043E000292B333735382B313538352B31393832A5
:1043F00000245034383631312D333632312B3338B6
:10440000302F5A2B3630393900641A282828363193
:104410003430302D2832313937312F313139352B85
:1044200034353932292F38333238292D28452F3861
:104430002B333737342B32343633292B432F363551
:104440003732292D36303135292D343637362B3158
:104450003734382B3635333700A3F631353534371A
:104460002F282828452A412D35393732292F412B2D
:10447000452F3133333529292B323035362B33391B
:1044800035382D353335312A3800A8B63531363632
:10449000392F28412D343436312F3531362A2843EF
:1044A0002A31382F3138313429292D323930362B01
:1044B0003634363700140E283A3438292F432B323D
:1044C000343931292A31372D313238330067A1315F
:1044D000373536362D5A2B323436392D3A31393379
:1044E0002900BF472828452F332B412D3632383439
:1044F000292D41292F353732312A36323231000207
:10450000F334353937332F2834343332362B3537BB
:1045100038322F333034292A2832353039382F4376
:104520002F352B3A31373629292D313431340022B9
:10453000D43734392A392B323532342B283A3235B4
:1045400033292F5A2F323136290034243A32373268
:10455000292B323635352B343330312B3230323251
:104560002D3131313200AABB3A333631292D35395C
:1045700035312F3633363200040035353435392F96
:104580005A2A34312B28412F32292B4500CB805A0F
:104590002F362A3539323800B8FE3A3430292D32D8
:1045A00030312B333034372D353538332D43004CF3
:1045B000E235303738362B323431392F28283A3427
:1045C00034292F3336362B353838352B32313838BD
:1045D000292D3A323034292B3233322D33343436CC
:1045E000292D28452D323539302F5A29007CFC28B9
:1045F0003A343331292B3A343338292B28323331AA
:1046000037322F363332332B3130303029292D31A8
:104610003833362F31373932362B383431004C03AA
:1046200036313635332F32303238342D313731335D
:104630002D313835322D28432A2836343334362F5D
:104640003134343733292F31313733290013F234E1
:10465000323236342F432A432B313733370096AB6F
:1046600034373431332B3530372D323134302F3924
:1046700038393700040031373733302D452A322D91
:104680005A2D31343338004D84452B353336382D8F
:10469000283A333637292A322F2828343330383213
:1046A0002B35313534292F31343039342B353039ED
:1046B0003629292A31310034E835363335382F414F
:1046C0002F452B343739352D333134362F313936A8
:1046D00000080032393133342D323530332F28453C
:1046E0002D333733382F28432A32312F4529292BB0
:1046F0003232352A373100B27B28452F352B3438FA
:104700003836292D432A31302F3A333534292D3587
:104710003034372D3435313800B8DA432A33392D67
:104720002831343030302D28432A412F313332396B
:10473000292F32323930292F32353537000F0043D7
:104740002A31382D3639362D33333839006538342F
:10475000393733332B3A333434292B31363831005F
:1047600098CC3A3531292A35342B32383232005E32
:10477000D632323631382F353035392B343031306E
:104780002B3339312F412B285A2D283632383738E0
:104790002F34363934292F3929005801283A333932
:1047A00036292B5A292D323737302F3131323332D7
:1047B0002D353537310041EA3A323135292B343540
:1047C00030382F373530330007003A313533292F51
:1047D0003130382A28285A2B333434302F43292AB1
:1047E000383630302F343334292B343534342B5A87
:1047F00000F1123A313035292D313830372B283A33
:10480000343533292D313034312F31303432302AA0
:104810003430302900C1C935313935392D3630337E
:10482000352B412F323032302B343935350071136E
:10483000452A36322A320058142831313734302A8A
:1048400034292D432B3233363800ABBC323730336A
:10485000342F353532302D3A333339290030FB3A95
:10486000343537292D452B3A343234292B3A32321C
:1048700033292D452D3130323400D4FF34323831D4
:10488000382D3A343438292B3A323434292D450026
:10489000FBA52832353438302B3A333233292D3AC0
:1048A00033373529292D343932302F313700500430
:1048B0005A2A3A323139292F31303831312D3436B4
:1048C00030352B452F37303735000800283A33383C
:1048D00032292F432B313634372B32343634292DBD
:1048E000313137302D452B3A343429002313432BF3
:1048F000432A342F313633332A34343035000956C5
:1049000032303635322A320058A13A323631292F28
:10491000383931342B333431392D3634001F0D35CD
:10492000393834302F2831313438362F3130383758
:104930002900601728432A412B323232392B353572
:104940003233292F353430392B323739302D323349
:1049500039300093013A333936290000D4285A2FD0
:1049600031312D5A292B313734342B3838352D330A
:104970003132352F31323535322A31323733310049
:10498000A7F832303736392F2835303837302B28D2
:104990003A343232292F452B283736382F313537E4
:1049A0002B3A3338342929292F3132363738292FF9
:1049B000313438382D313933320077F83A323733E1
:1049C000292F3739382B363030352F3533332D34C6
:1049D0003835330016ED283A313634292F31343644
:1049E00035352A31373535322D32323832292B419F
:1049F0002F31313238320004003A333138292B2834
:104A00003A343233292F283A333739292F3335397D
:104A1000382D28282832323734392B452B43292B7F
:104A2000393939292F3634373729292F383736295C
:104A30002B432B412D36343830008CEE3A37352954
:104A40002D3938372D3235343100FCF2283A3130E7
:104A500030292B2831363035352D353132322D364F
:104A60003334332F43292F5A292D363239342D3AF6
:104A70003232312900A7E631343035352F5A2B5ADE
:104A80002A36352D3539383700AD2D3138363631A7
:104A90002F3131352F33382B3538343600DA164183
:104AA0002F330004005A2B333531312F3630330089
:104AB000050028363736352A35292D35363430006D
:104AC000196E2835343139362F452F3636292F3592
:104AD0002D33333033001CF33930342B38352A343E
:104AE000302F31323132380003003A343337292D38
:104AF0003730310074BE2834363034312B5A2D41D2
:104B0000292D5A2D412F363731372A412B3934364A
:104B100000000434353435342B343030342D313505
:104B200034380026BB28432D5A2B333531362D36E9
:104B3000313632292B2834313731302F3138343562
:104B4000292F393734322A313339382F4500C700FD
:104B500028282832313538342B452F3A313337293C
:104B6000292F352A45292A323337292B3534393133
:104B70002F313830313500030028323633332B35AE
:104B80003838322F283A333330292B3A3130302914
:104B90002F5A2B323237292F35292A333533362DE8
:104BA000323532362F333433332A5A2D4300CAFC80
:104BB00031373733322D3931392B363235392D3AB9
:104BC00033323129005E58323339362B35313635A0
:104BD0002F5A006D00432A4500D2A83534363037AD
:104BE0002D333239322D452F2833323537362F28A1
:104BF0003A353033292A28452B343732362F343989
:104C000037292D4129292A33006021283A313236AB
:104C1000292A3237292B432F31323431302D5A0093
:104C2000BEFF432F28452B412F285A2F31382929E1
:104C30002A3639322D313730352D35393730001994
:104C40007C34393334322F432D343131380019F06C
:104C500028452B5A2F332B353335292F3134382D16
:104C6000333432382D452B3234313700E6FB2828D7
:104C70005A2F412B432D5A292F3935292D283133CD
:104C800032382A362D3A32313129292F283A313615
:104C900033292F5A292F352A3531313300ACEF28EB
:104CA000283A34303929292B412B33333733292BF8
:104CB000313139322F363337322B283A31343029DB
:104CC0002D343835342A283A343736292A31352FCD
:104CD00039393837292D4129001C12412F283A3201
:104CE0003032292F3539292D283A313530292A34C7
:104CF0002F31323238292F5A2F3634000E003532F8
:104D00003735382B33313432005CDA28412B3435D7
:104D100033372B282833343334382B283131343788
:104D2000352F33373335292F37313631292A5A2D4C
:104D3000313239392F3739303629292F412F5A2D21
:104D4000343036382B353238372A285A2F332F341F
:104D50002900E81736343036312D452D31313739B9
:104D60002D313632352F4500B10532372D343636E8
:104D7000372F31303539382B3137313800BB0628E1
:104D800035333237382F412F3439332D3139292BF0
:104D90003534332B323238312A3400F42B35363166
:104DA00034302F5A2A452D4500388528412D432F70
:104DB0003138353439292A2831353737392B432AC8
:104DC000322F45292D353530332D285A2D412B359D
:104DD000333132292D3A3930290026DE3335373246
:104DE000372D353632352F323537322B323738348E
:104DF00000EB0A33363030362B313533342B452F28
:104E00003132333639000300412B412B31343138F4
:104E10002B2832303730322B333433352F3539317C
:104E2000312900A805283A333938292D333239354C
:104E30002D353935382F35313733292B28285A2D40
:104E4000363331332B452F3134343438292B3A342F
:104E50003234292B33363933292F412D3131390062
:104E6000D50033353834342D3632362F28283432B5
:104E70003931332D452B31363032292D3336332F0E
:104E80003A34313329292B3237373700B438452D9E
:104E9000363030342D3436323600A4D6432D3935F1
:104EA000382A3136302F333735362D343334322FDC
:104EB0004500B105283A313433292B323434382FA8
:104EC000452F3130292B2835333138372B333136C4
:104ED000352F3134393037292A412A2833373838A9
:104EE000372F34393732292A373900A8E03634329F
:104EF00039342F363237332A34323632007CA634F6
:104F0000333536312D3131342B452D4300DCA53A74
:104F100031373829009CF234353237392B3333346A
:104F2000352F452A3531007FE631343932312F3182
:104F30003035342A3234343700D28528283A37398C
:104F4000292D323238322B35353836292D32353647
:104F5000322F39373931292B3A313430292D333337
:104F600036302B3435383500CF1D35343939322FB2
:104F70002828432B353834362B35383431292D3217
:104F8000393335292B3137323900C60631323638BC
:104F9000342B343335352D2832333137382F3630F2
:104FA0003932292F32363239000600313231393662
:104FB0002B353336332F333134350005003531315D
:104FC00036352F28412A3536332F452B41292F5A84
:104FD0002B283A3337292D363136342B432900D844
:104FE0000C3A333930292B33373931000FF334334E
:104FF0003632352D343430392B333330392F343386
:1050000039362B282836313334392B323437392B83
:105010003A323735292F3137373035292B5A2B344F
:105020003638302D3637392900F20F2834373837E3
:10503000312F28283A343636292F343938312D2863
:1050400031353434312F34393934292B3A32303632
:1050500029292B412B41292D313031362F43292D40
:10506000323532382B432D452B3232310016FB4579
:105070002F372B3A3531292D3A3330332900C601E9
:1050800032343631372B452D313635382F323738DB
:10509000372A28412B5A2B452D2835313739352DC4
:1050A0005A2B3332392F3635333129292A363400F9
:1050B00000EA34323933372F3330302F313700089C
:1050C0000035313035392B5A2F3130362A35382DCD
:1050D000323438302F363430002700363436393900
:1050E00000BBFC3A323037292D3536362B3433327B
:1050F000342D3233393300E5E52833383336312F58
:105100003A323734292D363031362B28353934337D
:10511000302B3631303729292F452B323633352B7A
:1051200028283A313932292B2832363532362D5A51
:105130002F3631333229292F412B313333292F3464
:10514000323600130036313636362D3335323200E2
:1051500020E3412B313231372D36303031005DEDD7
:10516000282834303832332B363039292D28363040
:1051700034332B3A333435292D2834343538302F15
:1051800031303331362B3130393129292F43292A17
:10519000412B4100C70132313236342B3A3135329E
:1051A000292B343331004E5928333331382F5A2AC2
:1051B00031323339292B3131313000A6EC363637D4
:1051C000392B353137382D313834342B33343832AC
:1051D00000B734283A343932292B35363938292B5F
:1051E000353838322D363435360002CF393138373C
:1051F0002A362D343739322D283A313438292F3197
:1052000034302B36323131290039AC323930333831
:105210002D363438322D333237322F5A00170128C9
:1052200035373430352F373235312B45292F410072
:1052300003002832383239342D5A2D35303237298F
:105240002F3A323131292A323934330073953736C7
:1052500032302B363233322B34353400E2373339A7
:105260003936352B430022A02835353039332B28E9
:1052700028412B343039382F43292D283A31323107
:10528000292D353132342F3A333738292A5A292BF0
:1052900031333131292F323634392A3131363729F9
:1052A0002B3A3730292F5A2D323036342B323239BF
:1052B0003700A802452F2833333338352D323734A1
:1052C000392D5A2F28363539312F3637382B36318C
:1052D000363229292D3232390025FF353135353323
:1052E0002D432B323237370041CE28412A2834371C
:1052F0003830322F31343836392B3A32343129298B
:105300002A32312F3134383134292A353638382B86
:10531000313831322B452B32383434000255343297
:105320003630382B363033352F373939362D31304A
:1053300039332D3A3239332900FDF53335353938D3
:105340002B3A3732292D3634312B3333333600574D
:105350009635363437312B353632382F28412A37B7
:1053600034342B313533352D43290006003134399F
:1053700036392F3A313234292B353432350046153F
:105380002831393831382D5A292D343031380073CD
:105390003D3A333838290004E45A2A383336005469
:1053A000E133353131362B452F373937332A430036
:1053B00014103A313139292B363132342F33393701
:1053C0002B323231372F3236342A430028203436FC
:1053D0003231342B343430372F432A5A2D3138337D
:1053E000332A3133009C4E35303632392D33313744
:1053F000342D323736302D353632382B283A31338A
:1054000034292D313834332F3233303529009F98E9
:10541000283A333230292B3A343736292B3431317C
:10542000362A33292D333736382B452D3233363152
:105430002B3437333300BAA132333631352B323285
:1054400030352D3A323532290018643A333637294F
:105450002F343237342B353639003C02333438366A
:105460002D343237392D333630312D283A34343219
:10547000292F37322B363034342F383339292B3417
:10548000353533009800313036362F3A3436292BF3
:105490003430383300F70F3A323134292B452B366C
:1054A000343937004F1E32393837352F28283632F5
:1054B0003439342D333131392D373634292B3535C4
:1054C000362F3134343934292A370034CC3635324A
:1054D00037302D2836353532352F313938333629A6
:1054E0002F3A333235292D412D3436373900B0ED7E
:1054F000283336343335292D5A2B3733302B43009C
:10550000ED943A313036292B412B5A2F353936322A
:1055100000080035373335372B313632362B5A00F9
:10552000ACE6412B313937342B3A333834290084F7
:1055300008432D353236362F412F383536000500D9
:105540003A3533292D3135383300D0BE3439313036
:10555000382B363130352B5A2B45001CD8283134A6
:105560003230392D313531312D353538372B283A18
:10557000323133292F38393629292B363139352B19
:10558000353030302B343234380028583534383503
:10559000332B43004ADA393835352D3A313537293E
:1055A0002F34373700140035393132302D3338334A
:1055B000322B343031362D41009BE75A2A353436B0
:1055C000002A933A333733292D452B283632343687
:1055D000302D313835332F3835353229006DCD280F
:1055E0003A3531292A31352D2834383532372D3A9C
:1055F000313635292F373733332B35393030292998
:105600002D363439322D313033352D4100F6033A01
:10561000333035292D452F383335372A3234393355
:105620002A3200DC743A313939292A2835313637A3
:10563000362D323935302F3135323535292B31334E
:1056400032332F283A3936292B31313030292A3557
:105650003032372B31333438005CA23231353932B5
:105660002D3233383400084B28283A343838292D65
:1056700032373137292B412D412F37343038292A01
:10568000412B3632393400E41835313630322F456B
:105690002F323438000400363937332B452D353658
:1056A00032302A4100D74632343339352B28432F44
:1056B0002835303935382F3136303339292B3333CB
:1056C00033382F353636292F5A2A3135392D33398B
:1056D000373100BCCB2835323230362F31373039B4
:1056E00030292D432B323538312B3134323600A559
:1056F0000B452A3739322F3A323833292A35333499
:10570000000A622833393331382D32373737292FA1
:10571000323733372D333137332B3836302D34345D
:105720003534009EE534333337392B36312D3A3159
:1057300035302900AF9035323634392B353532319A
:105740002B432B363436312D313237360080FB3A3D
:10575000333636292F28432F3330312B3238313826
:105760002D3838292B2834323234342D343933371C
:105770002F5A292F28452B333031302F38393929EA
:105780002A2831353032362A322F36383531290041
:10579000E00228282831373532362D3438332F456A
:1057A000292D283A313334292B5A2F45292B283AD1
:1057B000323035292F3A3134292F34292A3A3137DA
:1057C0003629292B333331302B5A292B33383230B9
:1057D00000DD6C31353034322B432D313137342BF1
:1057E000323134312D283A343539292D34322B4594
:1057F0002B34393930292D323834360028252834D5
:10580000323538322D2836303731392F3335373766
:105810002B28283A313039292D28393837322A3582
:105820002F33383233292B35363630292D432F315B
:10583000303530362929292F383034322A31343561
:10584000332A322A332B410053AA3A333939292BD0
:10585000283A333439292F393737392D285A2A41F4
:105860002B313231382F35353729292F3131313528
:105870002F3700060033393432362B452B3535357A
:10588000332D452F2836333536302F3139353131E8
:105890002B3A323231292900DC0034383134362DAC
:1058A000283A323933292F3235372A432D43292FCD
:1058B0003A32393329001D0033333438342B323037
:1058C00035322B3932002C8B3A3433292D2828419C
:1058D0002A323430372F33393531292A39323235AB
:1058E0002F43292A3400C0C65A2D363330392F456C
:1058F0000083053A313237292F31303633392B3591
:105900003433352D285A2D343035352F3A34353649
:10591000292B33323730290076082834353738348C
:105920002F35323732292D2831383039392F284553
:105930002A3538342F45292F39292B283138343945
:10594000352F323631352D323531332F41292D283F
:105950005A2D333836312B35373038292F36372BFF
:105960003236004500363733342B3A313537292F5C
:10597000313734312A31393038332D333939330026
:1059800008D0383937392D283A343332292F283482
:10599000363434312B2835383030382D3232372FE9
:1059A000333038342B33313630292B333938352FD7
:1059B0003331353429292A392D313538300093D601
:1059C0003A323830292F3139313136000300283A44
:1059D000323834292B343935352F32363037292FA8
:1059E000322A313534342B3432393300FD3A3339ED
:1059F0003038352D323136352F31303835370003D8
:105A00000035383337362B450032E4323130362B0F
:105A100028283A343330292F32373539292B353875
:105A200036392A382F37323839292A362F28353255
:105A30003537382B5A2F3136363331290080103A1A
:105A4000333037292F5A2A5A2A32302F3837382FF5
:105A50003200080033313939312B3A39372900C443
:105A60007E35393831342F412A31312B35323831B6
:105A70002D3430303500AFCA5A2F31342A31343406
:105A800035332D2834353831382F313230373629F7
:105A900000D1E136333332352F412F38353300050D
:105AA000002835393131382F3133333434292B4103
:105AB00000110035363237352D363435392F283A36
:105AC000323938292F31353034372B3530313629BA
:105AD000000900412B333133362F28432A382F5AFF
